{
  "contractName": "OrderContract",
  "abi": [
    {
      "inputs": [
        {
          "internalType": "address",
          "name": "_riderContractAddr",
          "type": "address"
        },
        {
          "internalType": "address",
          "name": "_storeContractAddr",
          "type": "address"
        }
      ],
      "stateMutability": "nonpayable",
      "type": "constructor"
    },
    {
      "anonymous": false,
      "inputs": [
        {
          "indexed": true,
          "internalType": "address",
          "name": "previousOwner",
          "type": "address"
        },
        {
          "indexed": true,
          "internalType": "address",
          "name": "newOwner",
          "type": "address"
        }
      ],
      "name": "OwnershipTransferred",
      "type": "event"
    },
    {
      "anonymous": false,
      "inputs": [
        {
          "indexed": false,
          "internalType": "string",
          "name": "message",
          "type": "string"
        }
      ],
      "name": "Result",
      "type": "event"
    },
    {
      "inputs": [],
      "name": "orderID",
      "outputs": [
        {
          "internalType": "uint256",
          "name": "",
          "type": "uint256"
        }
      ],
      "stateMutability": "view",
      "type": "function",
      "constant": true
    },
    {
      "inputs": [],
      "name": "owner",
      "outputs": [
        {
          "internalType": "address",
          "name": "",
          "type": "address"
        }
      ],
      "stateMutability": "view",
      "type": "function",
      "constant": true
    },
    {
      "inputs": [],
      "name": "renounceOwnership",
      "outputs": [],
      "stateMutability": "nonpayable",
      "type": "function"
    },
    {
      "inputs": [
        {
          "internalType": "address",
          "name": "newOwner",
          "type": "address"
        }
      ],
      "name": "transferOwnership",
      "outputs": [],
      "stateMutability": "nonpayable",
      "type": "function"
    },
    {
      "inputs": [
        {
          "internalType": "uint256",
          "name": "_role",
          "type": "uint256"
        }
      ],
      "name": "Register",
      "outputs": [],
      "stateMutability": "nonpayable",
      "type": "function"
    },
    {
      "inputs": [],
      "name": "returnRegister",
      "outputs": [
        {
          "internalType": "address",
          "name": "",
          "type": "address"
        },
        {
          "internalType": "enum OrderContract.Role",
          "name": "",
          "type": "uint8"
        }
      ],
      "stateMutability": "view",
      "type": "function",
      "constant": true
    },
    {
      "inputs": [
        {
          "internalType": "address",
          "name": "_sWallet",
          "type": "address"
        },
        {
          "internalType": "uint256",
          "name": "_foodPrice",
          "type": "uint256"
        },
        {
          "internalType": "uint256",
          "name": "_deliveryFee",
          "type": "uint256"
        },
        {
          "internalType": "uint256",
          "name": "_deliveryTip",
          "type": "uint256"
        }
      ],
      "name": "ordering",
      "outputs": [],
      "stateMutability": "payable",
      "type": "function",
      "payable": true
    },
    {
      "inputs": [],
      "name": "returnOrderID",
      "outputs": [
        {
          "internalType": "uint256",
          "name": "",
          "type": "uint256"
        }
      ],
      "stateMutability": "view",
      "type": "function",
      "constant": true
    },
    {
      "inputs": [
        {
          "internalType": "uint256",
          "name": "_orderID",
          "type": "uint256"
        }
      ],
      "name": "returnOrder",
      "outputs": [
        {
          "components": [
            {
              "internalType": "address",
              "name": "cWallet",
              "type": "address"
            },
            {
              "internalType": "address",
              "name": "sWallet",
              "type": "address"
            },
            {
              "internalType": "address",
              "name": "rWallet",
              "type": "address"
            },
            {
              "internalType": "uint256",
              "name": "foodPrice",
              "type": "uint256"
            },
            {
              "internalType": "uint256",
              "name": "deliveryFee",
              "type": "uint256"
            },
            {
              "internalType": "uint256",
              "name": "deliveryTip",
              "type": "uint256"
            },
            {
              "internalType": "enum OrderContract.orderState",
              "name": "status",
              "type": "uint8"
            }
          ],
          "internalType": "struct OrderContract.Order",
          "name": "",
          "type": "tuple"
        }
      ],
      "stateMutability": "view",
      "type": "function",
      "constant": true
    },
    {
      "inputs": [
        {
          "internalType": "uint256",
          "name": "_orderID",
          "type": "uint256"
        },
        {
          "internalType": "bool",
          "name": "_bool",
          "type": "bool"
        }
      ],
      "name": "storeAccept_Decline",
      "outputs": [],
      "stateMutability": "payable",
      "type": "function",
      "payable": true
    },
    {
      "inputs": [
        {
          "internalType": "uint256",
          "name": "_orderID",
          "type": "uint256"
        }
      ],
      "name": "returnOrderState",
      "outputs": [
        {
          "internalType": "enum OrderContract.orderState",
          "name": "",
          "type": "uint8"
        }
      ],
      "stateMutability": "view",
      "type": "function",
      "constant": true
    },
    {
      "inputs": [
        {
          "internalType": "uint256",
          "name": "_orderID",
          "type": "uint256"
        }
      ],
      "name": "cookFinish",
      "outputs": [],
      "stateMutability": "nonpayable",
      "type": "function"
    },
    {
      "inputs": [],
      "name": "getRiderNftTime",
      "outputs": [
        {
          "internalType": "uint256",
          "name": "",
          "type": "uint256"
        }
      ],
      "stateMutability": "view",
      "type": "function",
      "constant": true
    },
    {
      "inputs": [],
      "name": "getStoreNftTime",
      "outputs": [
        {
          "internalType": "uint256",
          "name": "",
          "type": "uint256"
        }
      ],
      "stateMutability": "view",
      "type": "function",
      "constant": true
    },
    {
      "inputs": [],
      "name": "burnRiderNft",
      "outputs": [],
      "stateMutability": "nonpayable",
      "type": "function"
    },
    {
      "inputs": [],
      "name": "burnStoreNft",
      "outputs": [],
      "stateMutability": "nonpayable",
      "type": "function"
    },
    {
      "inputs": [],
      "name": "getBlockTimeStamp",
      "outputs": [
        {
          "internalType": "uint256",
          "name": "",
          "type": "uint256"
        }
      ],
      "stateMutability": "view",
      "type": "function",
      "constant": true
    },
    {
      "inputs": [
        {
          "internalType": "uint256",
          "name": "_orderID",
          "type": "uint256"
        }
      ],
      "name": "setDelivery",
      "outputs": [],
      "stateMutability": "nonpayable",
      "type": "function"
    },
    {
      "inputs": [
        {
          "internalType": "uint256",
          "name": "_orderID",
          "type": "uint256"
        }
      ],
      "name": "startDelivery",
      "outputs": [],
      "stateMutability": "nonpayable",
      "type": "function"
    },
    {
      "inputs": [
        {
          "internalType": "uint256",
          "name": "_orderID",
          "type": "uint256"
        }
      ],
      "name": "doneDelivery",
      "outputs": [],
      "stateMutability": "nonpayable",
      "type": "function"
    },
    {
      "inputs": [
        {
          "internalType": "uint256",
          "name": "_orderID",
          "type": "uint256"
        },
        {
          "internalType": "bool",
          "name": "",
          "type": "bool"
        }
      ],
      "name": "orderComplete",
      "outputs": [],
      "stateMutability": "nonpayable",
      "type": "function"
    },
    {
      "inputs": [
        {
          "internalType": "uint256",
          "name": "_money",
          "type": "uint256"
        }
      ],
      "name": "withdraw",
      "outputs": [],
      "stateMutability": "nonpayable",
      "type": "function"
    }
  ],
  "bytecode": "0x608060405260026003553480156200001657600080fd5b5060405162002c6738038062002c6783398181016040528101906200003c91906200021c565b6200005c62000050620000e660201b60201c565b620000ee60201b60201c565b81600160006101000a81548173ffffffffffffffffffffffffffffffffffffffff021916908373ffffffffffffffffffffffffffffffffffffffff16021790555080600260006101000a81548173ffffffffffffffffffffffffffffffffffffffff021916908373ffffffffffffffffffffffffffffffffffffffff160217905550505062000263565b600033905090565b60008060009054906101000a900473ffffffffffffffffffffffffffffffffffffffff169050816000806101000a81548173ffffffffffffffffffffffffffffffffffffffff021916908373ffffffffffffffffffffffffffffffffffffffff1602179055508173ffffffffffffffffffffffffffffffffffffffff168173ffffffffffffffffffffffffffffffffffffffff167f8be0079c531659141344cd1fd0a4f28419497f9722a3daafe3b4186f6b6457e060405160405180910390a35050565b600080fd5b600073ffffffffffffffffffffffffffffffffffffffff82169050919050565b6000620001e482620001b7565b9050919050565b620001f681620001d7565b81146200020257600080fd5b50565b6000815190506200021681620001eb565b92915050565b60008060408385031215620002365762000235620001b2565b5b6000620002468582860162000205565b9250506020620002598582860162000205565b9150509250929050565b6129f480620002736000396000f3fe6080604052600436106101355760003560e01c8063b382192e116100ab578063d5b35d391161006f578063d5b35d39146103ab578063ddcaa3ac146103d4578063e7827b70146103ff578063f07fc6ca1461043c578063f2fde38b14610453578063f91c233f1461047c57610135565b8063b382192e14610306578063b39b1a8c1461031d578063b720af4514610339578063c66c22eb14610355578063ca49a5431461038057610135565b8063780d27b1116100fd578063780d27b1146101f85780637ff22a131461023557806381203d031461025e5780638da5cb5b14610289578063a18caf81146102b4578063b0284a9e146102dd57610135565b80632bc4acea1461013a5780632e1a7d4d14610163578063385fe0a91461018c57806359fd15c2146101b5578063715018a6146101e1575b600080fd5b34801561014657600080fd5b50610161600480360381019061015c9190611fb9565b6104a7565b005b34801561016f57600080fd5b5061018a60048036038101906101859190611fb9565b6105ab565b005b34801561019857600080fd5b506101b360048036038101906101ae9190611fb9565b61061b565b005b3480156101c157600080fd5b506101ca61071e565b6040516101d892919061209e565b60405180910390f35b3480156101ed57600080fd5b506101f66107dc565b005b34801561020457600080fd5b5061021f600480360381019061021a9190611fb9565b6107f0565b60405161022c91906121bb565b60405180910390f35b34801561024157600080fd5b5061025c60048036038101906102579190611fb9565b610978565b005b34801561026a57600080fd5b50610273610a7c565b60405161028091906121e5565b60405180910390f35b34801561029557600080fd5b5061029e610a82565b6040516102ab9190612200565b60405180910390f35b3480156102c057600080fd5b506102db60048036038101906102d69190611fb9565b610aab565b005b3480156102e957600080fd5b5061030460048036038101906102ff9190611fb9565b610cb2565b005b34801561031257600080fd5b5061031b610f69565b005b61033760048036038101906103329190612253565b611095565b005b610353600480360381019061034e91906122bf565b61138a565b005b34801561036157600080fd5b5061036a61160e565b60405161037791906121e5565b60405180910390f35b34801561038c57600080fd5b506103956116b1565b6040516103a291906121e5565b60405180910390f35b3480156103b757600080fd5b506103d260048036038101906103cd9190612253565b6116b9565b005b3480156103e057600080fd5b506103e9611b0e565b6040516103f691906121e5565b60405180910390f35b34801561040b57600080fd5b5061042660048036038101906104219190611fb9565b611b24565b6040516104339190612335565b60405180910390f35b34801561044857600080fd5b50610451611b51565b005b34801561045f57600080fd5b5061047a60048036038101906104759190612350565b611c7d565b005b34801561048857600080fd5b50610491611d00565b60405161049e91906121e5565b60405180910390f35b6005600082815260200190815260200160002060010160009054906101000a900473ffffffffffffffffffffffffffffffffffffffff1673ffffffffffffffffffffffffffffffffffffffff163373ffffffffffffffffffffffffffffffffffffffff161461051557600080fd5b6001600781111561052957610528612027565b5b6005600083815260200190815260200160002060060160009054906101000a900460ff16600781111561055f5761055e612027565b5b1461056957600080fd5b60036005600083815260200190815260200160002060060160006101000a81548160ff021916908360078111156105a3576105a2612027565b5b021790555050565b6105b3611da3565b600080476105c191906123ac565b9050600081116105d057600080fd5b3373ffffffffffffffffffffffffffffffffffffffff166108fc839081150290604051600060405180830381858888f19350505050158015610616573d6000803e3d6000fd5b505050565b3373ffffffffffffffffffffffffffffffffffffffff166005600083815260200190815260200160002060020160009054906101000a900473ffffffffffffffffffffffffffffffffffffffff1673ffffffffffffffffffffffffffffffffffffffff161461068957600080fd5b6004600781111561069d5761069c612027565b5b6005600083815260200190815260200160002060060160009054906101000a900460ff1660078111156106d3576106d2612027565b5b146106dd57600080fd5b600580600083815260200190815260200160002060060160006101000a81548160ff0219169083600781111561071657610715612027565b5b021790555050565b600080600660003373ffffffffffffffffffffffffffffffffffffffff1673ffffffffffffffffffffffffffffffffffffffff16815260200190815260200160002060000160009054906101000a900473ffffffffffffffffffffffffffffffffffffffff16600660003373ffffffffffffffffffffffffffffffffffffffff1673ffffffffffffffffffffffffffffffffffffffff16815260200190815260200160002060000160149054906101000a900460ff16915091509091565b6107e4611da3565b6107ee6000611e21565b565b6107f8611eed565b600560008381526020019081526020016000206040518060e00160405290816000820160009054906101000a900473ffffffffffffffffffffffffffffffffffffffff1673ffffffffffffffffffffffffffffffffffffffff1673ffffffffffffffffffffffffffffffffffffffff1681526020016001820160009054906101000a900473ffffffffffffffffffffffffffffffffffffffff1673ffffffffffffffffffffffffffffffffffffffff1673ffffffffffffffffffffffffffffffffffffffff1681526020016002820160009054906101000a900473ffffffffffffffffffffffffffffffffffffffff1673ffffffffffffffffffffffffffffffffffffffff1673ffffffffffffffffffffffffffffffffffffffff1681526020016003820154815260200160048201548152602001600582015481526020016006820160009054906101000a900460ff16600781111561095b5761095a612027565b5b600781111561096d5761096c612027565b5b815250509050919050565b3373ffffffffffffffffffffffffffffffffffffffff166005600083815260200190815260200160002060020160009054906101000a900473ffffffffffffffffffffffffffffffffffffffff1673ffffffffffffffffffffffffffffffffffffffff16146109e657600080fd5b600560078111156109fa576109f9612027565b5b6005600083815260200190815260200160002060060160009054906101000a900460ff166007811115610a3057610a2f612027565b5b14610a3a57600080fd5b60066005600083815260200190815260200160002060060160006101000a81548160ff02191690836007811115610a7457610a73612027565b5b021790555050565b60045481565b60008060009054906101000a900473ffffffffffffffffffffffffffffffffffffffff16905090565b60018103610baf5760405180604001604052803373ffffffffffffffffffffffffffffffffffffffff16815260200160006001811115610aee57610aed612027565b5b815250600660003373ffffffffffffffffffffffffffffffffffffffff1673ffffffffffffffffffffffffffffffffffffffff16815260200190815260200160002060008201518160000160006101000a81548173ffffffffffffffffffffffffffffffffffffffff021916908373ffffffffffffffffffffffffffffffffffffffff16021790555060208201518160000160146101000a81548160ff02191690836001811115610ba257610ba1612027565b5b0217905550905050610caf565b60028103610cae5760405180604001604052803373ffffffffffffffffffffffffffffffffffffffff168152602001600180811115610bf157610bf0612027565b5b815250600660003373ffffffffffffffffffffffffffffffffffffffff1673ffffffffffffffffffffffffffffffffffffffff16815260200190815260200160002060008201518160000160006101000a81548173ffffffffffffffffffffffffffffffffffffffff021916908373ffffffffffffffffffffffffffffffffffffffff16021790555060208201518160000160146101000a81548160ff02191690836001811115610ca557610ca4612027565b5b02179055509050505b5b50565b600180811115610cc557610cc4612027565b5b600660003373ffffffffffffffffffffffffffffffffffffffff1673ffffffffffffffffffffffffffffffffffffffff16815260200190815260200160002060000160149054906101000a900460ff166001811115610d2757610d26612027565b5b14610d3157600080fd5b42600160009054906101000a900473ffffffffffffffffffffffffffffffffffffffff1673ffffffffffffffffffffffffffffffffffffffff1663745220a2336040518263ffffffff1660e01b8152600401610d8d9190612200565b602060405180830381865afa158015610daa573d6000803e3d6000fd5b505050506040513d601f19601f82011682018060405250810190610dce91906123f5565b1015610e0f576040517f08c379a0000000000000000000000000000000000000000000000000000000008152600401610e06906124a5565b60405180910390fd5b600073ffffffffffffffffffffffffffffffffffffffff166005600083815260200190815260200160002060020160009054906101000a900473ffffffffffffffffffffffffffffffffffffffff1673ffffffffffffffffffffffffffffffffffffffff1614610e7e57600080fd5b60036007811115610e9257610e91612027565b5b6005600083815260200190815260200160002060060160009054906101000a900460ff166007811115610ec857610ec7612027565b5b14610ed257600080fd5b336005600083815260200190815260200160002060020160006101000a81548173ffffffffffffffffffffffffffffffffffffffff021916908373ffffffffffffffffffffffffffffffffffffffff16021790555060046005600083815260200190815260200160002060060160006101000a81548160ff02191690836007811115610f6157610f60612027565b5b021790555050565b600160009054906101000a900473ffffffffffffffffffffffffffffffffffffffff1673ffffffffffffffffffffffffffffffffffffffff16639dc29fac33600160009054906101000a900473ffffffffffffffffffffffffffffffffffffffff1673ffffffffffffffffffffffffffffffffffffffff16632010737f336040518263ffffffff1660e01b81526004016110039190612200565b602060405180830381865afa158015611020573d6000803e3d6000fd5b505050506040513d601f19601f8201168201806040525081019061104491906123f5565b6040518363ffffffff1660e01b81526004016110619291906124c5565b600060405180830381600087803b15801561107b57600080fd5b505af115801561108f573d6000803e3d6000fd5b50505050565b6005600083815260200190815260200160002060010160009054906101000a900473ffffffffffffffffffffffffffffffffffffffff1673ffffffffffffffffffffffffffffffffffffffff163373ffffffffffffffffffffffffffffffffffffffff1614611139576040517f08c379a00000000000000000000000000000000000000000000000000000000081526004016111309061253a565b60405180910390fd5b6000600781111561114d5761114c612027565b5b6005600084815260200190815260200160002060060160009054906101000a900460ff16600781111561118357611182612027565b5b146111c3576040517f08c379a00000000000000000000000000000000000000000000000000000000081526004016111ba906125a6565b60405180910390fd5b600115158115150361126b5760056000838152602001908152602001600020600401543414611227576040517f08c379a000000000000000000000000000000000000000000000000000000000815260040161121e90612612565b60405180910390fd5b60016005600084815260200190815260200160002060060160006101000a81548160ff0219169083600781111561126157611260612027565b5b0217905550611386565b60026005600084815260200190815260200160002060060160006101000a81548160ff021916908360078111156112a5576112a4612027565b5b021790555060006005600084815260200190815260200160002060050154600560008581526020019081526020016000206004015460056000868152602001908152602001600020600301546112fb9190612632565b6113059190612632565b90506005600084815260200190815260200160002060000160009054906101000a900473ffffffffffffffffffffffffffffffffffffffff1673ffffffffffffffffffffffffffffffffffffffff166108fc829081150290604051600060405180830381858888f19350505050158015611383573d6000803e3d6000fd5b50505b5050565b8082846113979190612632565b6113a19190612632565b34146113ac57600080fd5b600060018111156113c0576113bf612027565b5b600660008673ffffffffffffffffffffffffffffffffffffffff1673ffffffffffffffffffffffffffffffffffffffff16815260200190815260200160002060000160149054906101000a900460ff16600181111561142257611421612027565b5b1461142c57600080fd5b6040518060e001604052803373ffffffffffffffffffffffffffffffffffffffff1681526020018573ffffffffffffffffffffffffffffffffffffffff168152602001600073ffffffffffffffffffffffffffffffffffffffff168152602001848152602001838152602001828152602001600060078111156114b2576114b1612027565b5b81525060056000600454815260200190815260200160002060008201518160000160006101000a81548173ffffffffffffffffffffffffffffffffffffffff021916908373ffffffffffffffffffffffffffffffffffffffff16021790555060208201518160010160006101000a81548173ffffffffffffffffffffffffffffffffffffffff021916908373ffffffffffffffffffffffffffffffffffffffff16021790555060408201518160020160006101000a81548173ffffffffffffffffffffffffffffffffffffffff021916908373ffffffffffffffffffffffffffffffffffffffff160217905550606082015181600301556080820151816004015560a0820151816005015560c08201518160060160006101000a81548160ff021916908360078111156115e8576115e7612027565b5b02179055509050506004600081548092919061160390612666565b919050555050505050565b6000600260009054906101000a900473ffffffffffffffffffffffffffffffffffffffff1673ffffffffffffffffffffffffffffffffffffffff16633169b688336040518263ffffffff1660e01b815260040161166b9190612200565b602060405180830381865afa158015611688573d6000803e3d6000fd5b505050506040513d601f19601f820116820180604052508101906116ac91906123f5565b905090565b600042905090565b6000600260009054906101000a900473ffffffffffffffffffffffffffffffffffffffff1673ffffffffffffffffffffffffffffffffffffffff166369535c166005600086815260200190815260200160002060010160009054906101000a900473ffffffffffffffffffffffffffffffffffffffff166040518263ffffffff1660e01b815260040161174c9190612200565b602060405180830381865afa158015611769573d6000803e3d6000fd5b505050506040513d601f19601f8201168201806040525081019061178d91906123f5565b90503373ffffffffffffffffffffffffffffffffffffffff166005600085815260200190815260200160002060000160009054906101000a900473ffffffffffffffffffffffffffffffffffffffff1673ffffffffffffffffffffffffffffffffffffffff16146117fd57600080fd5b600060056000858152602001908152602001600020600501546002600560008781526020019081526020016000206004015461183991906126ae565b6118439190612632565b90506005600085815260200190815260200160002060020160009054906101000a900473ffffffffffffffffffffffffffffffffffffffff1673ffffffffffffffffffffffffffffffffffffffff166108fc829081150290604051600060405180830381858888f193505050501580156118c1573d6000803e3d6000fd5b50428211156119d6577ff5250111a819ab87d27490e1837d465f4bc000cfd9316fc90fde27c791d8026d6040516118f790612762565b60405180910390a16005600085815260200190815260200160002060010160009054906101000a900473ffffffffffffffffffffffffffffffffffffffff1673ffffffffffffffffffffffffffffffffffffffff166108fc60056000878152602001908152602001600020600301549081150290604051600060405180830381858888f19350505050158015611991573d6000803e3d6000fd5b5060076005600086815260200190815260200160002060060160006101000a81548160ff021916908360078111156119cc576119cb612027565b5b0217905550611b08565b7ff5250111a819ab87d27490e1837d465f4bc000cfd9316fc90fde27c791d8026d604051611a0390612840565b60405180910390a16000600560008681526020019081526020016000206003015490506005600086815260200190815260200160002060010160009054906101000a900473ffffffffffffffffffffffffffffffffffffffff1673ffffffffffffffffffffffffffffffffffffffff166108fc606460035484611a8691906126ae565b611a90919061288f565b83611a9b91906123ac565b9081150290604051600060405180830381858888f19350505050158015611ac6573d6000803e3d6000fd5b5060076005600087815260200190815260200160002060060160006101000a81548160ff02191690836007811115611b0157611b00612027565b5b0217905550505b50505050565b60006001600454611b1f91906123ac565b905090565b60006005600083815260200190815260200160002060060160009054906101000a900460ff169050919050565b600260009054906101000a900473ffffffffffffffffffffffffffffffffffffffff1673ffffffffffffffffffffffffffffffffffffffff16631ad9d60333600260009054906101000a900473ffffffffffffffffffffffffffffffffffffffff1673ffffffffffffffffffffffffffffffffffffffff1663dbe372cd336040518263ffffffff1660e01b8152600401611beb9190612200565b602060405180830381865afa158015611c08573d6000803e3d6000fd5b505050506040513d601f19601f82011682018060405250810190611c2c91906123f5565b6040518363ffffffff1660e01b8152600401611c499291906124c5565b600060405180830381600087803b158015611c6357600080fd5b505af1158015611c77573d6000803e3d6000fd5b50505050565b611c85611da3565b600073ffffffffffffffffffffffffffffffffffffffff168173ffffffffffffffffffffffffffffffffffffffff1603611cf4576040517f08c379a0000000000000000000000000000000000000000000000000000000008152600401611ceb90612932565b60405180910390fd5b611cfd81611e21565b50565b6000600160009054906101000a900473ffffffffffffffffffffffffffffffffffffffff1673ffffffffffffffffffffffffffffffffffffffff1663745220a2336040518263ffffffff1660e01b8152600401611d5d9190612200565b602060405180830381865afa158015611d7a573d6000803e3d6000fd5b505050506040513d601f19601f82011682018060405250810190611d9e91906123f5565b905090565b611dab611ee5565b73ffffffffffffffffffffffffffffffffffffffff16611dc9610a82565b73ffffffffffffffffffffffffffffffffffffffff1614611e1f576040517f08c379a0000000000000000000000000000000000000000000000000000000008152600401611e169061299e565b60405180910390fd5b565b60008060009054906101000a900473ffffffffffffffffffffffffffffffffffffffff169050816000806101000a81548173ffffffffffffffffffffffffffffffffffffffff021916908373ffffffffffffffffffffffffffffffffffffffff1602179055508173ffffffffffffffffffffffffffffffffffffffff168173ffffffffffffffffffffffffffffffffffffffff167f8be0079c531659141344cd1fd0a4f28419497f9722a3daafe3b4186f6b6457e060405160405180910390a35050565b600033905090565b6040518060e00160405280600073ffffffffffffffffffffffffffffffffffffffff168152602001600073ffffffffffffffffffffffffffffffffffffffff168152602001600073ffffffffffffffffffffffffffffffffffffffff16815260200160008152602001600081526020016000815260200160006007811115611f7857611f77612027565b5b81525090565b600080fd5b6000819050919050565b611f9681611f83565b8114611fa157600080fd5b50565b600081359050611fb381611f8d565b92915050565b600060208284031215611fcf57611fce611f7e565b5b6000611fdd84828501611fa4565b91505092915050565b600073ffffffffffffffffffffffffffffffffffffffff82169050919050565b600061201182611fe6565b9050919050565b61202181612006565b82525050565b7f4e487b7100000000000000000000000000000000000000000000000000000000600052602160045260246000fd5b6002811061206757612066612027565b5b50565b600081905061207882612056565b919050565b60006120888261206a565b9050919050565b6120988161207d565b82525050565b60006040820190506120b36000830185612018565b6120c0602083018461208f565b9392505050565b6120d081612006565b82525050565b6120df81611f83565b82525050565b600881106120f6576120f5612027565b5b50565b6000819050612107826120e5565b919050565b6000612117826120f9565b9050919050565b6121278161210c565b82525050565b60e08201600082015161214360008501826120c7565b50602082015161215660208501826120c7565b50604082015161216960408501826120c7565b50606082015161217c60608501826120d6565b50608082015161218f60808501826120d6565b5060a08201516121a260a08501826120d6565b5060c08201516121b560c085018261211e565b50505050565b600060e0820190506121d0600083018461212d565b92915050565b6121df81611f83565b82525050565b60006020820190506121fa60008301846121d6565b92915050565b60006020820190506122156000830184612018565b92915050565b60008115159050919050565b6122308161221b565b811461223b57600080fd5b50565b60008135905061224d81612227565b92915050565b6000806040838503121561226a57612269611f7e565b5b600061227885828601611fa4565b92505060206122898582860161223e565b9150509250929050565b61229c81612006565b81146122a757600080fd5b50565b6000813590506122b981612293565b92915050565b600080600080608085870312156122d9576122d8611f7e565b5b60006122e7878288016122aa565b94505060206122f887828801611fa4565b935050604061230987828801611fa4565b925050606061231a87828801611fa4565b91505092959194509250565b61232f8161210c565b82525050565b600060208201905061234a6000830184612326565b92915050565b60006020828403121561236657612365611f7e565b5b6000612374848285016122aa565b91505092915050565b7f4e487b7100000000000000000000000000000000000000000000000000000000600052601160045260246000fd5b60006123b782611f83565b91506123c283611f83565b92508282039050818111156123da576123d961237d565b5b92915050565b6000815190506123ef81611f8d565b92915050565b60006020828403121561240b5761240a611f7e565b5b6000612419848285016123e0565b91505092915050565b600082825260208201905092915050565b7f596f7520646f6e277420686176652064656c69766572794e6674206f72204e6660008201527f7420697320657870697265640000000000000000000000000000000000000000602082015250565b600061248f602c83612422565b915061249a82612433565b604082019050919050565b600060208201905081810360008301526124be81612482565b9050919050565b60006040820190506124da6000830185612018565b6124e760208301846121d6565b9392505050565b7f596f752063616e2774206163636573732074686973206f726465722e00000000600082015250565b6000612524601c83612422565b915061252f826124ee565b602082019050919050565b6000602082019050818103600083015261255381612517565b9050919050565b7f54686973206f72646572206973206e6f7420617661696c61626c652e00000000600082015250565b6000612590601c83612422565b915061259b8261255a565b602082019050919050565b600060208201905081810360008301526125bf81612583565b9050919050565b7f596f752073686f756c64207061792044656c6976657279466565000000000000600082015250565b60006125fc601a83612422565b9150612607826125c6565b602082019050919050565b6000602082019050818103600083015261262b816125ef565b9050919050565b600061263d82611f83565b915061264883611f83565b92508282019050808211156126605761265f61237d565b5b92915050565b600061267182611f83565b91507fffffffffffffffffffffffffffffffffffffffffffffffffffffffffffffffff82036126a3576126a261237d565b5b600182019050919050565b60006126b982611f83565b91506126c483611f83565b92508282026126d281611f83565b915082820484148315176126e9576126e861237d565b5b5092915050565b7f596f75206861766520616e204e46542e20506c6174666f726d2066656573206160008201527f7265207761697665642e00000000000000000000000000000000000000000000602082015250565b600061274c602a83612422565b9150612757826126f0565b604082019050919050565b6000602082019050818103600083015261277b8161273f565b9050919050565b7f596f7520646f6e2774206861766520616e204e4654206f7220796f757220757360008201527f61676520706572696f642068617320657870697265642e202054686520706c6160208201527f74666f726d20666565206973203225206f662074686520666f6f64707269636560408201527f2e00000000000000000000000000000000000000000000000000000000000000606082015250565b600061282a606183612422565b915061283582612782565b608082019050919050565b600060208201905081810360008301526128598161281d565b9050919050565b7f4e487b7100000000000000000000000000000000000000000000000000000000600052601260045260246000fd5b600061289a82611f83565b91506128a583611f83565b9250826128b5576128b4612860565b5b828204905092915050565b7f4f776e61626c653a206e6577206f776e657220697320746865207a65726f206160008201527f6464726573730000000000000000000000000000000000000000000000000000602082015250565b600061291c602683612422565b9150612927826128c0565b604082019050919050565b6000602082019050818103600083015261294b8161290f565b9050919050565b7f4f776e61626c653a2063616c6c6572206973206e6f7420746865206f776e6572600082015250565b6000612988602083612422565b915061299382612952565b602082019050919050565b600060208201905081810360008301526129b78161297b565b905091905056fea264697066735822122026907e81b924be4f6f6fb323cd9c9a7f24e06bd85c80513797959c1259f8078c64736f6c63430008120033",
  "immutableReferences": {},
  "source": "// SPDX-License-Identifier: MIT\r\npragma solidity ^0.8.18;\r\n\r\nimport \"../node_modules/@openzeppelin/contracts/access/Ownable.sol\";\r\nimport \"./riderNft.sol\";\r\nimport \"./storeNft.sol\";\r\n\r\n\r\ncontract OrderContract is Ownable {\r\n// HS-rider -----------------------------------------------------------------\r\n   \r\n    RiderNFT riderContract;\r\n    StoreNFT storeContract;\r\n\r\n    constructor(address _riderContractAddr,address _storeContractAddr){\r\n        riderContract= RiderNFT(payable (_riderContractAddr));\r\n        storeContract= StoreNFT(payable (_storeContractAddr));\r\n    }\r\n\r\n    uint platformFee = 2;   // \r\n    event Result(string message);\r\n\r\n//  -----------------------------------------------------------------------\r\n    \r\n    // \r\n    uint public orderID;       \r\n    \r\n    // \r\n    struct Order {\r\n        address cWallet;    // \r\n        address sWallet;    // \r\n        address rWallet;    // \r\n        uint foodPrice;     // \r\n        uint deliveryFee;   //    ( + )\r\n        uint deliveryTip;   //\r\n        orderState status;  // \r\n    }\r\n\r\n    //\r\n    enum orderState{\r\n        order,\r\n        store_accept,\r\n        store_decline,\r\n        store_cookFinish,\r\n        rider_accept,\r\n        rider_inDelivery,\r\n        rider_deliveryComplete,\r\n        done\r\n    }\r\n    \r\n\r\n    //   (orderID=>Order)\r\n    mapping(uint => Order) searchOrder; \r\n\r\n    //\r\n    enum Role{\r\n        store,\r\n        rider\r\n    }\r\n\r\n    // \r\n    struct Member {\r\n        address Wallet;\r\n        Role role;\r\n    }\r\n\r\n    // \r\n    mapping(address => Member) members;\r\n\r\n//  -----------------------------------------------------------------------\r\n\r\n    //\r\n    function Register(uint _role) public {\r\n        if(_role==1){\r\n            members[msg.sender]= Member(msg.sender, Role.store);\r\n        }else if(_role==2){\r\n            members[msg.sender]= Member(msg.sender, Role.rider);\r\n        }\r\n    }\r\n\r\n    //\r\n    function returnRegister()public view returns(address,Role){\r\n        return(members[msg.sender].Wallet, members[msg.sender].role);\r\n    }\r\n\r\n//  ------------------------------------------------------------------------------\r\n    //   \r\n    function ordering(address _sWallet, uint _foodPrice, uint _deliveryFee, uint _deliveryTip) public payable {\r\n        require(msg.value == (_foodPrice + _deliveryFee + _deliveryTip));           // \r\n        require(members[_sWallet].role == Role.store);                              //  \r\n        searchOrder[orderID] = Order(msg.sender, _sWallet, address(0) ,_foodPrice, _deliveryFee, _deliveryTip, orderState.order);\r\n        orderID++;\r\n    }\r\n    \r\n    function returnOrderID()public view returns(uint){\r\n        return orderID-1;\r\n    }\r\n\r\n    //\r\n    function returnOrder(uint _orderID)public view returns(Order memory){\r\n        return searchOrder[_orderID];\r\n    }\r\n\r\n    // :     /   \r\n    function storeAccept_Decline(uint _orderID, bool _bool) public payable {\r\n        require(msg.sender == searchOrder[_orderID].sWallet, \"You can't access this order.\");           // \r\n        require(searchOrder[_orderID].status == orderState.order, \"This order is not available.\");      //  \r\n        if(_bool==true){\r\n            require(msg.value == (searchOrder[_orderID].deliveryFee), \"You should pay DeliveryFee\");  // \r\n            searchOrder[_orderID].status = orderState.store_accept;                                      // \r\n        }else{\r\n            searchOrder[_orderID].status = orderState.store_decline;                                     //\r\n            uint refundPrice = searchOrder[_orderID].foodPrice + searchOrder[_orderID].deliveryFee + searchOrder[_orderID].deliveryTip;\r\n            payable (searchOrder[_orderID].cWallet).transfer(refundPrice);                               // \r\n        }\r\n    }\r\n\r\n    \r\n\r\n\r\n    //orderState ; \r\n    function returnOrderState(uint _orderID)public view returns(orderState){\r\n        return searchOrder[_orderID].status;\r\n    }\r\n\r\n    // \r\n    function cookFinish(uint _orderID) public {\r\n        require(msg.sender == searchOrder[_orderID].sWallet);                    // \r\n        require(searchOrder[_orderID].status == orderState.store_accept);\r\n        searchOrder[_orderID].status = orderState.store_cookFinish;\r\n    }\r\n\r\n\r\n    \r\n    \r\n    function getRiderNftTime()public  view returns(uint){\r\n        return riderContract.getRiderNftTime(msg.sender);\r\n    }\r\n    function getStoreNftTime()public  view returns(uint){\r\n        return storeContract.getStoreNftTime(msg.sender);\r\n    }\r\n    //(setDelivery) , nftMarket burn ,nft \r\n    function burnRiderNft()public {       \r\n            riderContract.burn(msg.sender,riderContract.getRiderTokenId(msg.sender));        \r\n    }\r\n    function burnStoreNft()public {       \r\n            storeContract.storeBurn(msg.sender,storeContract.getStoreTokenId(msg.sender));        \r\n    }\r\n\r\n    //web3 HS-rider getRiderNftTime(address)-getBlockTimeStamp()  usestate    \r\n    function getBlockTimeStamp()public view returns(uint){\r\n        return block.timestamp;\r\n    }\r\n\r\n    // \r\n    function setDelivery(uint _orderID) public  {\r\n        require(members[msg.sender].role == Role.rider);                         //  \r\n        //    nft \r\n        require(riderContract.getRiderNftTime(msg.sender)>=block.timestamp,\"You don't have deliveryNft or Nft is expired\");\r\n        require(searchOrder[_orderID].rWallet == address(0));                    //    \r\n        require(searchOrder[_orderID].status == orderState.store_cookFinish); //     \r\n        searchOrder[_orderID].rWallet = msg.sender;\r\n        searchOrder[_orderID].status = orderState.rider_accept;\r\n    }\r\n\r\n    \r\n\r\n    //   ..msg.value  ..\r\n    \r\n    //\r\n    function startDelivery(uint _orderID)public{\r\n        require(searchOrder[_orderID].rWallet == msg.sender);\r\n        require(searchOrder[_orderID].status == orderState.rider_accept);\r\n        searchOrder[_orderID].status = orderState.rider_inDelivery;\r\n    }\r\n\r\n    //\r\n    function doneDelivery(uint _orderID) public {\r\n        require(searchOrder[_orderID].rWallet == msg.sender);\r\n        require(searchOrder[_orderID].status == orderState.rider_inDelivery);    \r\n        searchOrder[_orderID].status = orderState.rider_deliveryComplete;\r\n    }\r\n\r\n    \r\n    //  ,    \r\n    function orderComplete(uint _orderID, bool) public {\r\n        \r\n        // store Store = new store();                                            //Genesis.sol  \r\n        uint nftOwner = storeContract.getMappingAccount(searchOrder[_orderID].sWallet);                            //tokenId                  \r\n        require(searchOrder[_orderID].cWallet == msg.sender); //     \r\n        uint totalFee = (searchOrder[_orderID].deliveryFee *2) + searchOrder[_orderID].deliveryTip;\r\n        // +   owner  \r\n        payable(searchOrder[_orderID].rWallet).transfer(totalFee); \r\n\r\n        if(nftOwner > block.timestamp ) { \r\n            emit Result(\"You have an NFT. Platform fees are waived.\");\r\n            payable(searchOrder[_orderID].sWallet).transfer(searchOrder[_orderID].foodPrice); \r\n            searchOrder[_orderID].status = orderState.done;\r\n        } else{ \r\n             emit Result(\"You don't have an NFT or your usage period has expired.  The platform fee is 2% of the foodprice.\");\r\n             uint FoodPrice = searchOrder[_orderID].foodPrice;\r\n             payable(searchOrder[_orderID].sWallet).transfer((FoodPrice-(FoodPrice * platformFee) /100)); // \r\n             searchOrder[_orderID].status = orderState.done;\r\n        }\r\n    }\r\n\r\n    //   \r\n    function withdraw(uint _money) public onlyOwner{\r\n        uint possible = address(this).balance -0/* */;\r\n        require(possible >0);\r\n        payable(msg.sender).transfer(_money);\r\n    }\r\n\r\n\r\n    // function returnNftTimeRider()public view returns(uint){\r\n    //     return riderContract.getRiderNftTime(msg.sender);\r\n    // }\r\n    // function returnNftTokenRider()public view returns(uint){\r\n    //     return riderContract.getRiderTokenId(msg.sender);\r\n    // }\r\n    // function returnNftTimeStore()public view returns(uint){\r\n    //     return Store.getMappingAccount(msg.sender);\r\n    // }\r\n}\r\n",
  "sourcePath": "C:\\Users\\ASUS\\visualstudio_project\\BaeBlock_teamProject\\contract\\truffle\\contracts\\orderContract.sol",
  "compiler": {
    "name": "solc",
    "version": "0.8.18+commit.87f61d96.Emscripten.clang"
  },
  "schemaVersion": "3.4.14",
  "updatedAt": "2023-07-17T04:48:15.477Z",
  "networkType": "ethereum",
  "devdoc": {
    "kind": "dev",
    "methods": {
      "owner()": {
        "details": "Returns the address of the current owner."
      },
      "renounceOwnership()": {
        "details": "Leaves the contract without owner. It will not be possible to call `onlyOwner` functions. Can only be called by the current owner. NOTE: Renouncing ownership will leave the contract without an owner, thereby disabling any functionality that is only available to the owner."
      },
      "transferOwnership(address)": {
        "details": "Transfers ownership of the contract to a new account (`newOwner`). Can only be called by the current owner."
      }
    },
    "version": 1
  },
  "userdoc": {
    "kind": "user",
    "methods": {},
    "version": 1
  }
}