{
  "contractName": "RiderNFT",
  "abi": [
    {
      "inputs": [],
      "stateMutability": "nonpayable",
      "type": "constructor"
    },
    {
      "anonymous": false,
      "inputs": [
        {
          "indexed": true,
          "internalType": "address",
          "name": "account",
          "type": "address"
        },
        {
          "indexed": true,
          "internalType": "address",
          "name": "operator",
          "type": "address"
        },
        {
          "indexed": false,
          "internalType": "bool",
          "name": "approved",
          "type": "bool"
        }
      ],
      "name": "ApprovalForAll",
      "type": "event"
    },
    {
      "anonymous": false,
      "inputs": [
        {
          "indexed": true,
          "internalType": "address",
          "name": "previousOwner",
          "type": "address"
        },
        {
          "indexed": true,
          "internalType": "address",
          "name": "newOwner",
          "type": "address"
        }
      ],
      "name": "OwnershipTransferred",
      "type": "event"
    },
    {
      "anonymous": false,
      "inputs": [
        {
          "indexed": true,
          "internalType": "address",
          "name": "operator",
          "type": "address"
        },
        {
          "indexed": true,
          "internalType": "address",
          "name": "from",
          "type": "address"
        },
        {
          "indexed": true,
          "internalType": "address",
          "name": "to",
          "type": "address"
        },
        {
          "indexed": false,
          "internalType": "uint256[]",
          "name": "ids",
          "type": "uint256[]"
        },
        {
          "indexed": false,
          "internalType": "uint256[]",
          "name": "values",
          "type": "uint256[]"
        }
      ],
      "name": "TransferBatch",
      "type": "event"
    },
    {
      "anonymous": false,
      "inputs": [
        {
          "indexed": true,
          "internalType": "address",
          "name": "operator",
          "type": "address"
        },
        {
          "indexed": true,
          "internalType": "address",
          "name": "from",
          "type": "address"
        },
        {
          "indexed": true,
          "internalType": "address",
          "name": "to",
          "type": "address"
        },
        {
          "indexed": false,
          "internalType": "uint256",
          "name": "id",
          "type": "uint256"
        },
        {
          "indexed": false,
          "internalType": "uint256",
          "name": "value",
          "type": "uint256"
        }
      ],
      "name": "TransferSingle",
      "type": "event"
    },
    {
      "anonymous": false,
      "inputs": [
        {
          "indexed": false,
          "internalType": "string",
          "name": "value",
          "type": "string"
        },
        {
          "indexed": true,
          "internalType": "uint256",
          "name": "id",
          "type": "uint256"
        }
      ],
      "name": "URI",
      "type": "event"
    },
    {
      "inputs": [
        {
          "internalType": "uint256",
          "name": "",
          "type": "uint256"
        }
      ],
      "name": "DeliveryNft",
      "outputs": [
        {
          "internalType": "uint256",
          "name": "",
          "type": "uint256"
        }
      ],
      "stateMutability": "view",
      "type": "function"
    },
    {
      "inputs": [
        {
          "internalType": "address",
          "name": "",
          "type": "address"
        }
      ],
      "name": "_balances",
      "outputs": [
        {
          "internalType": "uint256",
          "name": "",
          "type": "uint256"
        }
      ],
      "stateMutability": "view",
      "type": "function"
    },
    {
      "inputs": [
        {
          "internalType": "address",
          "name": "",
          "type": "address"
        }
      ],
      "name": "addressMintedBalance",
      "outputs": [
        {
          "internalType": "uint256",
          "name": "",
          "type": "uint256"
        }
      ],
      "stateMutability": "view",
      "type": "function"
    },
    {
      "inputs": [
        {
          "internalType": "address[]",
          "name": "accounts",
          "type": "address[]"
        },
        {
          "internalType": "uint256[]",
          "name": "ids",
          "type": "uint256[]"
        }
      ],
      "name": "balanceOfBatch",
      "outputs": [
        {
          "internalType": "uint256[]",
          "name": "",
          "type": "uint256[]"
        }
      ],
      "stateMutability": "view",
      "type": "function"
    },
    {
      "inputs": [],
      "name": "cost",
      "outputs": [
        {
          "internalType": "uint256",
          "name": "",
          "type": "uint256"
        }
      ],
      "stateMutability": "view",
      "type": "function"
    },
    {
      "inputs": [
        {
          "internalType": "uint256",
          "name": "id",
          "type": "uint256"
        }
      ],
      "name": "exists",
      "outputs": [
        {
          "internalType": "bool",
          "name": "",
          "type": "bool"
        }
      ],
      "stateMutability": "view",
      "type": "function"
    },
    {
      "inputs": [
        {
          "internalType": "address",
          "name": "account",
          "type": "address"
        },
        {
          "internalType": "address",
          "name": "operator",
          "type": "address"
        }
      ],
      "name": "isApprovedForAll",
      "outputs": [
        {
          "internalType": "bool",
          "name": "",
          "type": "bool"
        }
      ],
      "stateMutability": "view",
      "type": "function"
    },
    {
      "inputs": [],
      "name": "maxSupply",
      "outputs": [
        {
          "internalType": "uint256",
          "name": "",
          "type": "uint256"
        }
      ],
      "stateMutability": "view",
      "type": "function"
    },
    {
      "inputs": [],
      "name": "nftPerAddressLimit",
      "outputs": [
        {
          "internalType": "uint256",
          "name": "",
          "type": "uint256"
        }
      ],
      "stateMutability": "view",
      "type": "function"
    },
    {
      "inputs": [],
      "name": "owner",
      "outputs": [
        {
          "internalType": "address",
          "name": "",
          "type": "address"
        }
      ],
      "stateMutability": "view",
      "type": "function"
    },
    {
      "inputs": [],
      "name": "renounceOwnership",
      "outputs": [],
      "stateMutability": "nonpayable",
      "type": "function"
    },
    {
      "inputs": [
        {
          "internalType": "address",
          "name": "from",
          "type": "address"
        },
        {
          "internalType": "address",
          "name": "to",
          "type": "address"
        },
        {
          "internalType": "uint256[]",
          "name": "ids",
          "type": "uint256[]"
        },
        {
          "internalType": "uint256[]",
          "name": "amounts",
          "type": "uint256[]"
        },
        {
          "internalType": "bytes",
          "name": "data",
          "type": "bytes"
        }
      ],
      "name": "safeBatchTransferFrom",
      "outputs": [],
      "stateMutability": "nonpayable",
      "type": "function"
    },
    {
      "inputs": [
        {
          "internalType": "address",
          "name": "from",
          "type": "address"
        },
        {
          "internalType": "address",
          "name": "to",
          "type": "address"
        },
        {
          "internalType": "uint256",
          "name": "id",
          "type": "uint256"
        },
        {
          "internalType": "uint256",
          "name": "amount",
          "type": "uint256"
        },
        {
          "internalType": "bytes",
          "name": "data",
          "type": "bytes"
        }
      ],
      "name": "safeTransferFrom",
      "outputs": [],
      "stateMutability": "nonpayable",
      "type": "function"
    },
    {
      "inputs": [
        {
          "internalType": "address",
          "name": "operator",
          "type": "address"
        },
        {
          "internalType": "bool",
          "name": "approved",
          "type": "bool"
        }
      ],
      "name": "setApprovalForAll",
      "outputs": [],
      "stateMutability": "nonpayable",
      "type": "function"
    },
    {
      "inputs": [
        {
          "internalType": "bytes4",
          "name": "interfaceId",
          "type": "bytes4"
        }
      ],
      "name": "supportsInterface",
      "outputs": [
        {
          "internalType": "bool",
          "name": "",
          "type": "bool"
        }
      ],
      "stateMutability": "view",
      "type": "function"
    },
    {
      "inputs": [
        {
          "internalType": "uint256",
          "name": "id",
          "type": "uint256"
        }
      ],
      "name": "totalSupply",
      "outputs": [
        {
          "internalType": "uint256",
          "name": "",
          "type": "uint256"
        }
      ],
      "stateMutability": "view",
      "type": "function"
    },
    {
      "inputs": [
        {
          "internalType": "address",
          "name": "newOwner",
          "type": "address"
        }
      ],
      "name": "transferOwnership",
      "outputs": [],
      "stateMutability": "nonpayable",
      "type": "function"
    },
    {
      "inputs": [
        {
          "internalType": "uint256",
          "name": "",
          "type": "uint256"
        }
      ],
      "name": "uri",
      "outputs": [
        {
          "internalType": "string",
          "name": "",
          "type": "string"
        }
      ],
      "stateMutability": "view",
      "type": "function"
    },
    {
      "inputs": [
        {
          "internalType": "uint256",
          "name": "amount",
          "type": "uint256"
        }
      ],
      "name": "DeliveryMint",
      "outputs": [],
      "stateMutability": "payable",
      "type": "function"
    },
    {
      "inputs": [
        {
          "internalType": "address",
          "name": "_a",
          "type": "address"
        },
        {
          "internalType": "uint256",
          "name": "tokenId",
          "type": "uint256"
        }
      ],
      "name": "burn",
      "outputs": [],
      "stateMutability": "nonpayable",
      "type": "function"
    },
    {
      "inputs": [
        {
          "internalType": "address",
          "name": "_a",
          "type": "address"
        }
      ],
      "name": "getRiderNftTime",
      "outputs": [
        {
          "internalType": "uint256",
          "name": "",
          "type": "uint256"
        }
      ],
      "stateMutability": "view",
      "type": "function"
    },
    {
      "inputs": [
        {
          "internalType": "address",
          "name": "_a",
          "type": "address"
        }
      ],
      "name": "getRiderTokenId",
      "outputs": [
        {
          "internalType": "uint256",
          "name": "",
          "type": "uint256"
        }
      ],
      "stateMutability": "view",
      "type": "function"
    },
    {
      "inputs": [
        {
          "internalType": "uint256",
          "name": "tokenId",
          "type": "uint256"
        }
      ],
      "name": "setBurnDelay",
      "outputs": [],
      "stateMutability": "nonpayable",
      "type": "function"
    },
    {
      "inputs": [
        {
          "internalType": "uint256",
          "name": "tokenId",
          "type": "uint256"
        }
      ],
      "name": "getMintCount",
      "outputs": [
        {
          "internalType": "uint256",
          "name": "",
          "type": "uint256"
        }
      ],
      "stateMutability": "view",
      "type": "function"
    },
    {
      "inputs": [
        {
          "internalType": "uint256",
          "name": "tokenId",
          "type": "uint256"
        }
      ],
      "name": "getBurnTimestamp",
      "outputs": [
        {
          "internalType": "uint256",
          "name": "",
          "type": "uint256"
        }
      ],
      "stateMutability": "view",
      "type": "function"
    },
    {
      "inputs": [
        {
          "internalType": "address",
          "name": "account",
          "type": "address"
        },
        {
          "internalType": "uint256",
          "name": "id",
          "type": "uint256"
        }
      ],
      "name": "balanceOf",
      "outputs": [
        {
          "internalType": "uint256",
          "name": "",
          "type": "uint256"
        }
      ],
      "stateMutability": "view",
      "type": "function"
    },
    {
      "inputs": [
        {
          "internalType": "address",
          "name": "account",
          "type": "address"
        }
      ],
      "name": "balanceOf",
      "outputs": [
        {
          "internalType": "uint256",
          "name": "",
          "type": "uint256"
        }
      ],
      "stateMutability": "view",
      "type": "function"
    },
    {
      "inputs": [
        {
          "internalType": "address",
          "name": "account",
          "type": "address"
        },
        {
          "internalType": "uint256",
          "name": "balance",
          "type": "uint256"
        }
      ],
      "name": "setBalance",
      "outputs": [],
      "stateMutability": "nonpayable",
      "type": "function"
    },
    {
      "inputs": [
        {
          "internalType": "address payable",
          "name": "_to",
          "type": "address"
        },
        {
          "internalType": "uint256",
          "name": "_amount",
          "type": "uint256"
        }
      ],
      "name": "transferTo",
      "outputs": [],
      "stateMutability": "nonpayable",
      "type": "function"
    },
    {
      "inputs": [
        {
          "internalType": "address",
          "name": "",
          "type": "address"
        }
      ],
      "name": "balan",
      "outputs": [
        {
          "internalType": "uint256",
          "name": "",
          "type": "uint256"
        }
      ],
      "stateMutability": "view",
      "type": "function"
    },
    {
      "inputs": [],
      "name": "getLength",
      "outputs": [
        {
          "internalType": "uint256",
          "name": "",
          "type": "uint256"
        }
      ],
      "stateMutability": "view",
      "type": "function"
    },
    {
      "inputs": [],
      "name": "getArray",
      "outputs": [
        {
          "internalType": "uint256[]",
          "name": "",
          "type": "uint256[]"
        }
      ],
      "stateMutability": "view",
      "type": "function"
    },
    {
      "inputs": [
        {
          "internalType": "uint256",
          "name": "_amount",
          "type": "uint256"
        }
      ],
      "name": "withdrawal",
      "outputs": [],
      "stateMutability": "nonpayable",
      "type": "function"
    }
  ],
  "bytecode": "0x608060405260016005556127106006556001600755624f1a00600e5534801562000027575f80fd5b506040518060a0016040528060768152602001620047df607691396200005381620000ba60201b60201c565b506200007462000068620000cf60201b60201c565b620000d660201b60201c565b3360105f6101000a81548173ffffffffffffffffffffffffffffffffffffffff021916908373ffffffffffffffffffffffffffffffffffffffff160217905550620004e1565b8060029081620000cb9190620003fd565b5050565b5f33905090565b5f60045f9054906101000a900473ffffffffffffffffffffffffffffffffffffffff1690508160045f6101000a81548173ffffffffffffffffffffffffffffffffffffffff021916908373ffffffffffffffffffffffffffffffffffffffff1602179055508173ffffffffffffffffffffffffffffffffffffffff168173ffffffffffffffffffffffffffffffffffffffff167f8be0079c531659141344cd1fd0a4f28419497f9722a3daafe3b4186f6b6457e060405160405180910390a35050565b5f81519050919050565b7f4e487b71000000000000000000000000000000000000000000000000000000005f52604160045260245ffd5b7f4e487b71000000000000000000000000000000000000000000000000000000005f52602260045260245ffd5b5f60028204905060018216806200021557607f821691505b6020821081036200022b576200022a620001d0565b5b50919050565b5f819050815f5260205f209050919050565b5f6020601f8301049050919050565b5f82821b905092915050565b5f600883026200028f7fffffffffffffffffffffffffffffffffffffffffffffffffffffffffffffffff8262000252565b6200029b868362000252565b95508019841693508086168417925050509392505050565b5f819050919050565b5f819050919050565b5f620002e5620002df620002d984620002b3565b620002bc565b620002b3565b9050919050565b5f819050919050565b6200030083620002c5565b620003186200030f82620002ec565b8484546200025e565b825550505050565b5f90565b6200032e62000320565b6200033b818484620002f5565b505050565b5b818110156200036257620003565f8262000324565b60018101905062000341565b5050565b601f821115620003b1576200037b8162000231565b620003868462000243565b8101602085101562000396578190505b620003ae620003a58562000243565b83018262000340565b50505b505050565b5f82821c905092915050565b5f620003d35f1984600802620003b6565b1980831691505092915050565b5f620003ed8383620003c2565b9150826002028217905092915050565b620004088262000199565b67ffffffffffffffff811115620004245762000423620001a3565b5b620004308254620001fd565b6200043d82828562000366565b5f60209050601f83116001811462000473575f84156200045e578287015190505b6200046a8582620003e0565b865550620004d9565b601f198416620004838662000231565b5f5b82811015620004ac5784890151825560018201915060208501945060208101905062000485565b86831015620004cc5784890151620004c8601f891682620003c2565b8355505b6001600288020188555050505b505050505050565b6142f080620004ef5f395ff3fe6080604052600436106101ec575f3560e01c8063745220a21161010c578063be1c766b1161009f578063e30443bc1161006e578063e30443bc14610756578063e985e9c51461077e578063eaf00444146107ba578063f242432a146107f6578063f2fde38b1461081e576101ec565b8063be1c766b1461069c578063d504ea1d146106c6578063d5abeb01146106f0578063db09a3f51461071a576101ec565b80639dc29fac116100db5780639dc29fac146105e6578063a22cb4651461060e578063ba7d2c7614610636578063bd85b03914610660576101ec565b8063745220a21461051c5780637ac09ec414610558578063835fc6ca146105945780638da5cb5b146105bc576101ec565b80632ccb1b3011610184578063596716ff11610153578063596716ff146104725780636ebcf6071461048e57806370a08231146104ca578063715018a614610506576101ec565b80632ccb1b30146103aa5780632eb2c2d6146103d25780634e1273f4146103fa5780634f558e7914610436576101ec565b806318cae269116101c057806318cae269146102ce578063192468cf1461030a5780631eed7b4d146103325780632010737f1461036e576101ec565b8062fdd58e146101f057806301ffc9a71461022c5780630e89341c1461026857806313faede6146102a4575b5f80fd5b3480156101fb575f80fd5b5061021660048036038101906102119190612a0f565b610846565b6040516102239190612a5c565b60405180910390f35b348015610237575f80fd5b50610252600480360381019061024d9190612aca565b610909565b60405161025f9190612b0f565b60405180910390f35b348015610273575f80fd5b5061028e60048036038101906102899190612b28565b6109ea565b60405161029b9190612bdd565b60405180910390f35b3480156102af575f80fd5b506102b8610a7c565b6040516102c59190612a5c565b60405180910390f35b3480156102d9575f80fd5b506102f460048036038101906102ef9190612bfd565b610a82565b6040516103019190612a5c565b60405180910390f35b348015610315575f80fd5b50610330600480360381019061032b9190612b28565b610a97565b005b34801561033d575f80fd5b5061035860048036038101906103539190612b28565b610ac6565b6040516103659190612a5c565b60405180910390f35b348015610379575f80fd5b50610394600480360381019061038f9190612bfd565b610ae6565b6040516103a19190612a5c565b60405180910390f35b3480156103b5575f80fd5b506103d060048036038101906103cb9190612c63565b610b2c565b005b3480156103dd575f80fd5b506103f860048036038101906103f39190612e91565b610b74565b005b348015610405575f80fd5b50610420600480360381019061041b919061301c565b610c15565b60405161042d9190613149565b60405180910390f35b348015610441575f80fd5b5061045c60048036038101906104579190612b28565b610d2c565b6040516104699190612b0f565b60405180910390f35b61048c60048036038101906104879190612b28565b610d3f565b005b348015610499575f80fd5b506104b460048036038101906104af9190612bfd565b610ff5565b6040516104c19190612a5c565b60405180910390f35b3480156104d5575f80fd5b506104f060048036038101906104eb9190612bfd565b61100a565b6040516104fd9190612a5c565b60405180910390f35b348015610511575f80fd5b5061051a611050565b005b348015610527575f80fd5b50610542600480360381019061053d9190612bfd565b611063565b60405161054f9190612a5c565b60405180910390f35b348015610563575f80fd5b5061057e60048036038101906105799190612bfd565b6110ba565b60405161058b9190612a5c565b60405180910390f35b34801561059f575f80fd5b506105ba60048036038101906105b59190612b28565b611100565b005b3480156105c7575f80fd5b506105d06111f7565b6040516105dd9190613178565b60405180910390f35b3480156105f1575f80fd5b5061060c60048036038101906106079190612a0f565b61121f565b005b348015610619575f80fd5b50610634600480360381019061062f91906131bb565b6113ea565b005b348015610641575f80fd5b5061064a611400565b6040516106579190612a5c565b60405180910390f35b34801561066b575f80fd5b5061068660048036038101906106819190612b28565b611406565b6040516106939190612a5c565b60405180910390f35b3480156106a7575f80fd5b506106b0611420565b6040516106bd9190612a5c565b60405180910390f35b3480156106d1575f80fd5b506106da61142c565b6040516106e79190613149565b60405180910390f35b3480156106fb575f80fd5b50610704611482565b6040516107119190612a5c565b60405180910390f35b348015610725575f80fd5b50610740600480360381019061073b9190612b28565b611488565b60405161074d9190612a5c565b60405180910390f35b348015610761575f80fd5b5061077c60048036038101906107779190612a0f565b6114a2565b005b348015610789575f80fd5b506107a4600480360381019061079f91906131f9565b6114e8565b6040516107b19190612b0f565b60405180910390f35b3480156107c5575f80fd5b506107e060048036038101906107db9190612b28565b611576565b6040516107ed9190612a5c565b60405180910390f35b348015610801575f80fd5b5061081c60048036038101906108179190613237565b611590565b005b348015610829575f80fd5b50610844600480360381019061083f9190612bfd565b611631565b005b5f8073ffffffffffffffffffffffffffffffffffffffff168373ffffffffffffffffffffffffffffffffffffffff16036108b5576040517f08c379a00000000000000000000000000000000000000000000000000000000081526004016108ac9061333a565b60405180910390fd5b5f808381526020019081526020015f205f8473ffffffffffffffffffffffffffffffffffffffff1673ffffffffffffffffffffffffffffffffffffffff1681526020019081526020015f2054905092915050565b5f7fd9b67a26000000000000000000000000000000000000000000000000000000007bffffffffffffffffffffffffffffffffffffffffffffffffffffffff1916827bffffffffffffffffffffffffffffffffffffffffffffffffffffffff191614806109d357507f0e89341c000000000000000000000000000000000000000000000000000000007bffffffffffffffffffffffffffffffffffffffffffffffffffffffff1916827bffffffffffffffffffffffffffffffffffffffffffffffffffffffff1916145b806109e357506109e2826116b3565b5b9050919050565b6060600280546109f990613385565b80601f0160208091040260200160405190810160405280929190818152602001828054610a2590613385565b8015610a705780601f10610a4757610100808354040283529160200191610a70565b820191905f5260205f20905b815481529060010190602001808311610a5357829003601f168201915b50505050509050919050565b60055481565b600f602052805f5260405f205f915090505481565b610a9f61171c565b625c490042610aae91906133e2565b600d5f8381526020019081526020015f208190555050565b600c8181548110610ad5575f80fd5b905f5260205f20015f915090505481565b5f60085f8373ffffffffffffffffffffffffffffffffffffffff1673ffffffffffffffffffffffffffffffffffffffff1681526020019081526020015f20549050919050565b8173ffffffffffffffffffffffffffffffffffffffff166108fc8290811502906040515f60405180830381858888f19350505050158015610b6f573d5f803e3d5ffd5b505050565b610b7c61179a565b73ffffffffffffffffffffffffffffffffffffffff168573ffffffffffffffffffffffffffffffffffffffff161480610bc25750610bc185610bbc61179a565b6114e8565b5b610c01576040517f08c379a0000000000000000000000000000000000000000000000000000000008152600401610bf890613485565b60405180910390fd5b610c0e85858585856117a1565b5050505050565b60608151835114610c5b576040517f08c379a0000000000000000000000000000000000000000000000000000000008152600401610c5290613513565b60405180910390fd5b5f835167ffffffffffffffff811115610c7757610c76612ca5565b5b604051908082528060200260200182016040528015610ca55781602001602082028036833780820191505090505b5090505f5b8451811015610d2157610cf1858281518110610cc957610cc8613531565b5b6020026020010151858381518110610ce457610ce3613531565b5b6020026020010151610846565b828281518110610d0457610d03613531565b5b60200260200101818152505080610d1a9061355e565b9050610caa565b508091505092915050565b5f80610d3783611406565b119050919050565b600f5f3373ffffffffffffffffffffffffffffffffffffffff1673ffffffffffffffffffffffffffffffffffffffff1681526020019081526020015f2054600b81905550612710600c8054905010610dcc576040517f08c379a0000000000000000000000000000000000000000000000000000000008152600401610dc3906135ef565b60405180910390fd5b600754600b5410610e12576040517f08c379a0000000000000000000000000000000000000000000000000000000008152600401610e0990613657565b60405180910390fd5b5f6001610e1f600a611aaf565b610e299190613675565b905081600554610e3991906136a8565b341015610e7b576040517f08c379a0000000000000000000000000000000000000000000000000000000008152600401610e7290613733565b60405180910390fd5b60065482600c80549050610e8f9190613675565b10610ecf576040517f08c379a0000000000000000000000000000000000000000000000000000000008152600401610ec69061379b565b60405180910390fd5b610ed9600a611abb565b610ef333828460405180602001604052805f815250611acf565b600e5442610f019190613675565b600d5f8381526020019081526020015f20819055508060085f3373ffffffffffffffffffffffffffffffffffffffff1673ffffffffffffffffffffffffffffffffffffffff1681526020019081526020015f2081905550600c81908060018154018082558091505060019003905f5260205f20015f90919091909150555f600190505b828111610ff057600f5f3373ffffffffffffffffffffffffffffffffffffffff1673ffffffffffffffffffffffffffffffffffffffff1681526020019081526020015f205f815480929190610fd89061355e565b91905055508080610fe89061355e565b915050610f84565b505050565b6008602052805f5260405f205f915090505481565b5f60085f8373ffffffffffffffffffffffffffffffffffffffff1673ffffffffffffffffffffffffffffffffffffffff1681526020019081526020015f20549050919050565b61105861171c565b6110615f611c72565b565b5f600d5f60085f8573ffffffffffffffffffffffffffffffffffffffff1673ffffffffffffffffffffffffffffffffffffffff1681526020019081526020015f205481526020019081526020015f20549050919050565b5f60085f3373ffffffffffffffffffffffffffffffffffffffff1673ffffffffffffffffffffffffffffffffffffffff1681526020019081526020015f20549050919050565b3373ffffffffffffffffffffffffffffffffffffffff1660105f9054906101000a900473ffffffffffffffffffffffffffffffffffffffff1673ffffffffffffffffffffffffffffffffffffffff161461118f576040517f08c379a000000000000000000000000000000000000000000000000000000000815260040161118690613803565b60405180910390fd5b60105f9054906101000a900473ffffffffffffffffffffffffffffffffffffffff1673ffffffffffffffffffffffffffffffffffffffff166108fc8290811502906040515f60405180830381858888f193505050501580156111f3573d5f803e3d5ffd5b5050565b5f60045f9054906101000a900473ffffffffffffffffffffffffffffffffffffffff16905090565b8060085f8473ffffffffffffffffffffffffffffffffffffffff1673ffffffffffffffffffffffffffffffffffffffff1681526020019081526020015f20541461129e576040517f08c379a00000000000000000000000000000000000000000000000000000000081526004016112959061386b565b60405180910390fd5b5f600d5f8381526020019081526020015f2054036112f1576040517f08c379a00000000000000000000000000000000000000000000000000000000081526004016112e8906138f9565b60405180910390fd5b600d5f8281526020019081526020015f2054421015611345576040517f08c379a000000000000000000000000000000000000000000000000000000000815260040161133c90613961565b60405180910390fd5b61135933826113548585610846565b611d35565b5f600d5f8381526020019081526020015f2081905550600f5f8373ffffffffffffffffffffffffffffffffffffffff1673ffffffffffffffffffffffffffffffffffffffff1681526020019081526020015f205f8154809291906113bc9061397f565b9190505550600c8054806113d3576113d26139a6565b5b600190038181905f5260205f20015f905590555050565b6113fc6113f561179a565b8383611f69565b5050565b60075481565b5f60035f8381526020019081526020015f20549050919050565b5f600c80549050905090565b6060600c80548060200260200160405190810160405280929190818152602001828054801561147857602002820191905f5260205f20905b815481526020019060010190808311611464575b5050505050905090565b60065481565b5f60095f8381526020019081526020015f20549050919050565b8060085f8473ffffffffffffffffffffffffffffffffffffffff1673ffffffffffffffffffffffffffffffffffffffff1681526020019081526020015f20819055505050565b5f60015f8473ffffffffffffffffffffffffffffffffffffffff1673ffffffffffffffffffffffffffffffffffffffff1681526020019081526020015f205f8373ffffffffffffffffffffffffffffffffffffffff1673ffffffffffffffffffffffffffffffffffffffff1681526020019081526020015f205f9054906101000a900460ff16905092915050565b5f600d5f8381526020019081526020015f20549050919050565b61159861179a565b73ffffffffffffffffffffffffffffffffffffffff168573ffffffffffffffffffffffffffffffffffffffff1614806115de57506115dd856115d861179a565b6114e8565b5b61161d576040517f08c379a000000000000000000000000000000000000000000000000000000000815260040161161490613485565b60405180910390fd5b61162a85858585856120d0565b5050505050565b61163961171c565b5f73ffffffffffffffffffffffffffffffffffffffff168173ffffffffffffffffffffffffffffffffffffffff16036116a7576040517f08c379a000000000000000000000000000000000000000000000000000000000815260040161169e90613a43565b60405180910390fd5b6116b081611c72565b50565b5f7f01ffc9a7000000000000000000000000000000000000000000000000000000007bffffffffffffffffffffffffffffffffffffffffffffffffffffffff1916827bffffffffffffffffffffffffffffffffffffffffffffffffffffffff1916149050919050565b61172461179a565b73ffffffffffffffffffffffffffffffffffffffff166117426111f7565b73ffffffffffffffffffffffffffffffffffffffff1614611798576040517f08c379a000000000000000000000000000000000000000000000000000000000815260040161178f90613aab565b60405180910390fd5b565b5f33905090565b81518351146117e5576040517f08c379a00000000000000000000000000000000000000000000000000000000081526004016117dc90613b39565b60405180910390fd5b5f73ffffffffffffffffffffffffffffffffffffffff168473ffffffffffffffffffffffffffffffffffffffff1603611853576040517f08c379a000000000000000000000000000000000000000000000000000000000815260040161184a90613bc7565b60405180910390fd5b5f61185c61179a565b905061186c818787878787612359565b5f5b8451811015611a0c575f85828151811061188b5761188a613531565b5b602002602001015190505f8583815181106118a9576118a8613531565b5b602002602001015190505f805f8481526020019081526020015f205f8b73ffffffffffffffffffffffffffffffffffffffff1673ffffffffffffffffffffffffffffffffffffffff1681526020019081526020015f2054905081811015611945576040517f08c379a000000000000000000000000000000000000000000000000000000000815260040161193c90613c55565b60405180910390fd5b8181035f808581526020019081526020015f205f8c73ffffffffffffffffffffffffffffffffffffffff1673ffffffffffffffffffffffffffffffffffffffff1681526020019081526020015f2081905550815f808581526020019081526020015f205f8b73ffffffffffffffffffffffffffffffffffffffff1673ffffffffffffffffffffffffffffffffffffffff1681526020019081526020015f205f8282546119f19190613675565b9250508190555050505080611a059061355e565b905061186e565b508473ffffffffffffffffffffffffffffffffffffffff168673ffffffffffffffffffffffffffffffffffffffff168273ffffffffffffffffffffffffffffffffffffffff167f4a39dc06d4c0dbc64b70af90fd698a233a518aa5d07e595d983b8c0526c8f7fb8787604051611a83929190613c73565b60405180910390a4611a9981878787878761251b565b611aa7818787878787612523565b505050505050565b5f815f01549050919050565b6001815f015f828254019250508190555050565b5f73ffffffffffffffffffffffffffffffffffffffff168473ffffffffffffffffffffffffffffffffffffffff1603611b3d576040517f08c379a0000000000000000000000000000000000000000000000000000000008152600401611b3490613d18565b60405180910390fd5b5f611b4661179a565b90505f611b52856126f9565b90505f611b5e856126f9565b9050611b6e835f89858589612359565b845f808881526020019081526020015f205f8973ffffffffffffffffffffffffffffffffffffffff1673ffffffffffffffffffffffffffffffffffffffff1681526020019081526020015f205f828254611bc89190613675565b925050819055508673ffffffffffffffffffffffffffffffffffffffff165f73ffffffffffffffffffffffffffffffffffffffff168473ffffffffffffffffffffffffffffffffffffffff167fc3d58168c5ae7397731d063d5bbf3d657854427343f4c083240f7aacaa2d0f628989604051611c45929190613d36565b60405180910390a4611c5b835f8985858961251b565b611c69835f89898989612771565b50505050505050565b5f60045f9054906101000a900473ffffffffffffffffffffffffffffffffffffffff1690508160045f6101000a81548173ffffffffffffffffffffffffffffffffffffffff021916908373ffffffffffffffffffffffffffffffffffffffff1602179055508173ffffffffffffffffffffffffffffffffffffffff168173ffffffffffffffffffffffffffffffffffffffff167f8be0079c531659141344cd1fd0a4f28419497f9722a3daafe3b4186f6b6457e060405160405180910390a35050565b5f73ffffffffffffffffffffffffffffffffffffffff168373ffffffffffffffffffffffffffffffffffffffff1603611da3576040517f08c379a0000000000000000000000000000000000000000000000000000000008152600401611d9a90613dcd565b60405180910390fd5b5f611dac61179a565b90505f611db8846126f9565b90505f611dc4846126f9565b9050611de283875f858560405180602001604052805f815250612359565b5f805f8781526020019081526020015f205f8873ffffffffffffffffffffffffffffffffffffffff1673ffffffffffffffffffffffffffffffffffffffff1681526020019081526020015f2054905084811015611e74576040517f08c379a0000000000000000000000000000000000000000000000000000000008152600401611e6b90613e5b565b60405180910390fd5b8481035f808881526020019081526020015f205f8973ffffffffffffffffffffffffffffffffffffffff1673ffffffffffffffffffffffffffffffffffffffff1681526020019081526020015f20819055505f73ffffffffffffffffffffffffffffffffffffffff168773ffffffffffffffffffffffffffffffffffffffff168573ffffffffffffffffffffffffffffffffffffffff167fc3d58168c5ae7397731d063d5bbf3d657854427343f4c083240f7aacaa2d0f628989604051611f3c929190613d36565b60405180910390a4611f6084885f868660405180602001604052805f81525061251b565b50505050505050565b8173ffffffffffffffffffffffffffffffffffffffff168373ffffffffffffffffffffffffffffffffffffffff1603611fd7576040517f08c379a0000000000000000000000000000000000000000000000000000000008152600401611fce90613ee9565b60405180910390fd5b8060015f8573ffffffffffffffffffffffffffffffffffffffff1673ffffffffffffffffffffffffffffffffffffffff1681526020019081526020015f205f8473ffffffffffffffffffffffffffffffffffffffff1673ffffffffffffffffffffffffffffffffffffffff1681526020019081526020015f205f6101000a81548160ff0219169083151502179055508173ffffffffffffffffffffffffffffffffffffffff168373ffffffffffffffffffffffffffffffffffffffff167f17307eab39ab6107e8899845ad3d59bd9653f200f220920489ca2b5937696c31836040516120c39190612b0f565b60405180910390a3505050565b5f73ffffffffffffffffffffffffffffffffffffffff168473ffffffffffffffffffffffffffffffffffffffff160361213e576040517f08c379a000000000000000000000000000000000000000000000000000000000815260040161213590613bc7565b60405180910390fd5b5f61214761179a565b90505f612153856126f9565b90505f61215f856126f9565b905061216f838989858589612359565b5f805f8881526020019081526020015f205f8a73ffffffffffffffffffffffffffffffffffffffff1673ffffffffffffffffffffffffffffffffffffffff1681526020019081526020015f2054905085811015612201576040517f08c379a00000000000000000000000000000000000000000000000000000000081526004016121f890613c55565b60405180910390fd5b8581035f808981526020019081526020015f205f8b73ffffffffffffffffffffffffffffffffffffffff1673ffffffffffffffffffffffffffffffffffffffff1681526020019081526020015f2081905550855f808981526020019081526020015f205f8a73ffffffffffffffffffffffffffffffffffffffff1673ffffffffffffffffffffffffffffffffffffffff1681526020019081526020015f205f8282546122ad9190613675565b925050819055508773ffffffffffffffffffffffffffffffffffffffff168973ffffffffffffffffffffffffffffffffffffffff168573ffffffffffffffffffffffffffffffffffffffff167fc3d58168c5ae7397731d063d5bbf3d657854427343f4c083240f7aacaa2d0f628a8a60405161232a929190613d36565b60405180910390a4612340848a8a86868a61251b565b61234e848a8a8a8a8a612771565b505050505050505050565b612367868686868686612947565b5f73ffffffffffffffffffffffffffffffffffffffff168573ffffffffffffffffffffffffffffffffffffffff1603612413575f5b8351811015612411578281815181106123b8576123b7613531565b5b602002602001015160035f8684815181106123d6576123d5613531565b5b602002602001015181526020019081526020015f205f8282546123f99190613675565b925050819055508061240a9061355e565b905061239c565b505b5f73ffffffffffffffffffffffffffffffffffffffff168473ffffffffffffffffffffffffffffffffffffffff1603612513575f5b8351811015612511575f84828151811061246557612464613531565b5b602002602001015190505f84838151811061248357612482613531565b5b602002602001015190505f60035f8481526020019081526020015f20549050818110156124e5576040517f08c379a00000000000000000000000000000000000000000000000000000000081526004016124dc90613f77565b60405180910390fd5b81810360035f8581526020019081526020015f20819055505050508061250a9061355e565b9050612448565b505b505050505050565b505050505050565b6125428473ffffffffffffffffffffffffffffffffffffffff1661294f565b156126f1578373ffffffffffffffffffffffffffffffffffffffff1663bc197c8187878686866040518663ffffffff1660e01b8152600401612588959493929190613fe7565b6020604051808303815f875af19250505080156125c357506040513d601f19601f820116820180604052508101906125c09190614061565b60015b612668576125cf614098565b806308c379a00361262b57506125e36140b7565b806125ee575061262d565b806040517f08c379a00000000000000000000000000000000000000000000000000000000081526004016126229190612bdd565b60405180910390fd5b505b6040517f08c379a000000000000000000000000000000000000000000000000000000000815260040161265f906141b6565b60405180910390fd5b63bc197c8160e01b7bffffffffffffffffffffffffffffffffffffffffffffffffffffffff1916817bffffffffffffffffffffffffffffffffffffffffffffffffffffffff1916146126ef576040517f08c379a00000000000000000000000000000000000000000000000000000000081526004016126e690614244565b60405180910390fd5b505b505050505050565b60605f600167ffffffffffffffff81111561271757612716612ca5565b5b6040519080825280602002602001820160405280156127455781602001602082028036833780820191505090505b50905082815f8151811061275c5761275b613531565b5b60200260200101818152505080915050919050565b6127908473ffffffffffffffffffffffffffffffffffffffff1661294f565b1561293f578373ffffffffffffffffffffffffffffffffffffffff1663f23a6e6187878686866040518663ffffffff1660e01b81526004016127d6959493929190614262565b6020604051808303815f875af192505050801561281157506040513d601f19601f8201168201806040525081019061280e9190614061565b60015b6128b65761281d614098565b806308c379a00361287957506128316140b7565b8061283c575061287b565b806040517f08c379a00000000000000000000000000000000000000000000000000000000081526004016128709190612bdd565b60405180910390fd5b505b6040517f08c379a00000000000000000000000000000000000000000000000000000000081526004016128ad906141b6565b60405180910390fd5b63f23a6e6160e01b7bffffffffffffffffffffffffffffffffffffffffffffffffffffffff1916817bffffffffffffffffffffffffffffffffffffffffffffffffffffffff19161461293d576040517f08c379a000000000000000000000000000000000000000000000000000000000815260040161293490614244565b60405180910390fd5b505b505050505050565b505050505050565b5f808273ffffffffffffffffffffffffffffffffffffffff163b119050919050565b5f604051905090565b5f80fd5b5f80fd5b5f73ffffffffffffffffffffffffffffffffffffffff82169050919050565b5f6129ab82612982565b9050919050565b6129bb816129a1565b81146129c5575f80fd5b50565b5f813590506129d6816129b2565b92915050565b5f819050919050565b6129ee816129dc565b81146129f8575f80fd5b50565b5f81359050612a09816129e5565b92915050565b5f8060408385031215612a2557612a2461297a565b5b5f612a32858286016129c8565b9250506020612a43858286016129fb565b9150509250929050565b612a56816129dc565b82525050565b5f602082019050612a6f5f830184612a4d565b92915050565b5f7fffffffff0000000000000000000000000000000000000000000000000000000082169050919050565b612aa981612a75565b8114612ab3575f80fd5b50565b5f81359050612ac481612aa0565b92915050565b5f60208284031215612adf57612ade61297a565b5b5f612aec84828501612ab6565b91505092915050565b5f8115159050919050565b612b0981612af5565b82525050565b5f602082019050612b225f830184612b00565b92915050565b5f60208284031215612b3d57612b3c61297a565b5b5f612b4a848285016129fb565b91505092915050565b5f81519050919050565b5f82825260208201905092915050565b5f5b83811015612b8a578082015181840152602081019050612b6f565b5f8484015250505050565b5f601f19601f8301169050919050565b5f612baf82612b53565b612bb98185612b5d565b9350612bc9818560208601612b6d565b612bd281612b95565b840191505092915050565b5f6020820190508181035f830152612bf58184612ba5565b905092915050565b5f60208284031215612c1257612c1161297a565b5b5f612c1f848285016129c8565b91505092915050565b5f612c3282612982565b9050919050565b612c4281612c28565b8114612c4c575f80fd5b50565b5f81359050612c5d81612c39565b92915050565b5f8060408385031215612c7957612c7861297a565b5b5f612c8685828601612c4f565b9250506020612c97858286016129fb565b9150509250929050565b5f80fd5b7f4e487b71000000000000000000000000000000000000000000000000000000005f52604160045260245ffd5b612cdb82612b95565b810181811067ffffffffffffffff82111715612cfa57612cf9612ca5565b5b80604052505050565b5f612d0c612971565b9050612d188282612cd2565b919050565b5f67ffffffffffffffff821115612d3757612d36612ca5565b5b602082029050602081019050919050565b5f80fd5b5f612d5e612d5984612d1d565b612d03565b90508083825260208201905060208402830185811115612d8157612d80612d48565b5b835b81811015612daa5780612d9688826129fb565b845260208401935050602081019050612d83565b5050509392505050565b5f82601f830112612dc857612dc7612ca1565b5b8135612dd8848260208601612d4c565b91505092915050565b5f80fd5b5f67ffffffffffffffff821115612dff57612dfe612ca5565b5b612e0882612b95565b9050602081019050919050565b828183375f83830152505050565b5f612e35612e3084612de5565b612d03565b905082815260208101848484011115612e5157612e50612de1565b5b612e5c848285612e15565b509392505050565b5f82601f830112612e7857612e77612ca1565b5b8135612e88848260208601612e23565b91505092915050565b5f805f805f60a08688031215612eaa57612ea961297a565b5b5f612eb7888289016129c8565b9550506020612ec8888289016129c8565b945050604086013567ffffffffffffffff811115612ee957612ee861297e565b5b612ef588828901612db4565b935050606086013567ffffffffffffffff811115612f1657612f1561297e565b5b612f2288828901612db4565b925050608086013567ffffffffffffffff811115612f4357612f4261297e565b5b612f4f88828901612e64565b9150509295509295909350565b5f67ffffffffffffffff821115612f7657612f75612ca5565b5b602082029050602081019050919050565b5f612f99612f9484612f5c565b612d03565b90508083825260208201905060208402830185811115612fbc57612fbb612d48565b5b835b81811015612fe55780612fd188826129c8565b845260208401935050602081019050612fbe565b5050509392505050565b5f82601f83011261300357613002612ca1565b5b8135613013848260208601612f87565b91505092915050565b5f80604083850312156130325761303161297a565b5b5f83013567ffffffffffffffff81111561304f5761304e61297e565b5b61305b85828601612fef565b925050602083013567ffffffffffffffff81111561307c5761307b61297e565b5b61308885828601612db4565b9150509250929050565b5f81519050919050565b5f82825260208201905092915050565b5f819050602082019050919050565b6130c4816129dc565b82525050565b5f6130d583836130bb565b60208301905092915050565b5f602082019050919050565b5f6130f782613092565b613101818561309c565b935061310c836130ac565b805f5b8381101561313c57815161312388826130ca565b975061312e836130e1565b92505060018101905061310f565b5085935050505092915050565b5f6020820190508181035f83015261316181846130ed565b905092915050565b613172816129a1565b82525050565b5f60208201905061318b5f830184613169565b92915050565b61319a81612af5565b81146131a4575f80fd5b50565b5f813590506131b581613191565b92915050565b5f80604083850312156131d1576131d061297a565b5b5f6131de858286016129c8565b92505060206131ef858286016131a7565b9150509250929050565b5f806040838503121561320f5761320e61297a565b5b5f61321c858286016129c8565b925050602061322d858286016129c8565b9150509250929050565b5f805f805f60a086880312156132505761324f61297a565b5b5f61325d888289016129c8565b955050602061326e888289016129c8565b945050604061327f888289016129fb565b9350506060613290888289016129fb565b925050608086013567ffffffffffffffff8111156132b1576132b061297e565b5b6132bd88828901612e64565b9150509295509295909350565b7f455243313135353a2061646472657373207a65726f206973206e6f74206120765f8201527f616c6964206f776e657200000000000000000000000000000000000000000000602082015250565b5f613324602a83612b5d565b915061332f826132ca565b604082019050919050565b5f6020820190508181035f83015261335181613318565b9050919050565b7f4e487b71000000000000000000000000000000000000000000000000000000005f52602260045260245ffd5b5f600282049050600182168061339c57607f821691505b6020821081036133af576133ae613358565b5b50919050565b7f4e487b71000000000000000000000000000000000000000000000000000000005f52601160045260245ffd5b5f6133ec826129dc565b91506133f7836129dc565b925082820390508181111561340f5761340e6133b5565b5b92915050565b7f455243313135353a2063616c6c6572206973206e6f7420746f6b656e206f776e5f8201527f6572206f7220617070726f766564000000000000000000000000000000000000602082015250565b5f61346f602e83612b5d565b915061347a82613415565b604082019050919050565b5f6020820190508181035f83015261349c81613463565b9050919050565b7f455243313135353a206163636f756e747320616e6420696473206c656e6774685f8201527f206d69736d617463680000000000000000000000000000000000000000000000602082015250565b5f6134fd602983612b5d565b9150613508826134a3565b604082019050919050565b5f6020820190508181035f83015261352a816134f1565b9050919050565b7f4e487b71000000000000000000000000000000000000000000000000000000005f52603260045260245ffd5b5f613568826129dc565b91507fffffffffffffffffffffffffffffffffffffffffffffffffffffffffffffffff820361359a576135996133b5565b5b600182019050919050565b7f546865206e756d626572206f66206d656d626572732069732066756c6c0000005f82015250565b5f6135d9601d83612b5d565b91506135e4826135a5565b602082019050919050565b5f6020820190508181035f830152613606816135cd565b9050919050565b7f6d6178204e4654207065722061646472657373206578636565646564000000005f82015250565b5f613641601c83612b5d565b915061364c8261360d565b602082019050919050565b5f6020820190508181035f83015261366e81613635565b9050919050565b5f61367f826129dc565b915061368a836129dc565b92508282019050808211156136a2576136a16133b5565b5b92915050565b5f6136b2826129dc565b91506136bd836129dc565b92508282026136cb816129dc565b915082820484148315176136e2576136e16133b5565b5b5092915050565b7f696e73756666696369656e742066756e647300000000000000000000000000005f82015250565b5f61371d601283612b5d565b9150613728826136e9565b602082019050919050565b5f6020820190508181035f83015261374a81613711565b9050919050565b7f6d6178204e4654206c696d6974206578636565646564000000000000000000005f82015250565b5f613785601683612b5d565b915061379082613751565b602082019050919050565b5f6020820190508181035f8301526137b281613779565b9050919050565b7f796f7520617265206e6f74206f776e65720000000000000000000000000000005f82015250565b5f6137ed601183612b5d565b91506137f8826137b9565b602082019050919050565b5f6020820190508181035f83015261381a816137e1565b9050919050565b7f596f7520617265206e6f7420746865204f776e657200000000000000000000005f82015250565b5f613855601583612b5d565b915061386082613821565b602082019050919050565b5f6020820190508181035f83015261388281613849565b9050919050565b7f546f6b656e20646f6573206e6f74206578697374206f7220616c7265616479205f8201527f6275726e65640000000000000000000000000000000000000000000000000000602082015250565b5f6138e3602683612b5d565b91506138ee82613889565b604082019050919050565b5f6020820190508181035f830152613910816138d7565b9050919050565b7f4275726e2064656c617920686173206e6f7420706173736564207965740000005f82015250565b5f61394b601d83612b5d565b915061395682613917565b602082019050919050565b5f6020820190508181035f8301526139788161393f565b9050919050565b5f613989826129dc565b91505f820361399b5761399a6133b5565b5b600182039050919050565b7f4e487b71000000000000000000000000000000000000000000000000000000005f52603160045260245ffd5b7f4f776e61626c653a206e6577206f776e657220697320746865207a65726f20615f8201527f6464726573730000000000000000000000000000000000000000000000000000602082015250565b5f613a2d602683612b5d565b9150613a38826139d3565b604082019050919050565b5f6020820190508181035f830152613a5a81613a21565b9050919050565b7f4f776e61626c653a2063616c6c6572206973206e6f7420746865206f776e65725f82015250565b5f613a95602083612b5d565b9150613aa082613a61565b602082019050919050565b5f6020820190508181035f830152613ac281613a89565b9050919050565b7f455243313135353a2069647320616e6420616d6f756e7473206c656e677468205f8201527f6d69736d61746368000000000000000000000000000000000000000000000000602082015250565b5f613b23602883612b5d565b9150613b2e82613ac9565b604082019050919050565b5f6020820190508181035f830152613b5081613b17565b9050919050565b7f455243313135353a207472616e7366657220746f20746865207a65726f2061645f8201527f6472657373000000000000000000000000000000000000000000000000000000602082015250565b5f613bb1602583612b5d565b9150613bbc82613b57565b604082019050919050565b5f6020820190508181035f830152613bde81613ba5565b9050919050565b7f455243313135353a20696e73756666696369656e742062616c616e636520666f5f8201527f72207472616e7366657200000000000000000000000000000000000000000000602082015250565b5f613c3f602a83612b5d565b9150613c4a82613be5565b604082019050919050565b5f6020820190508181035f830152613c6c81613c33565b9050919050565b5f6040820190508181035f830152613c8b81856130ed565b90508181036020830152613c9f81846130ed565b90509392505050565b7f455243313135353a206d696e7420746f20746865207a65726f206164647265735f8201527f7300000000000000000000000000000000000000000000000000000000000000602082015250565b5f613d02602183612b5d565b9150613d0d82613ca8565b604082019050919050565b5f6020820190508181035f830152613d2f81613cf6565b9050919050565b5f604082019050613d495f830185612a4d565b613d566020830184612a4d565b9392505050565b7f455243313135353a206275726e2066726f6d20746865207a65726f20616464725f8201527f6573730000000000000000000000000000000000000000000000000000000000602082015250565b5f613db7602383612b5d565b9150613dc282613d5d565b604082019050919050565b5f6020820190508181035f830152613de481613dab565b9050919050565b7f455243313135353a206275726e20616d6f756e7420657863656564732062616c5f8201527f616e636500000000000000000000000000000000000000000000000000000000602082015250565b5f613e45602483612b5d565b9150613e5082613deb565b604082019050919050565b5f6020820190508181035f830152613e7281613e39565b9050919050565b7f455243313135353a2073657474696e6720617070726f76616c207374617475735f8201527f20666f722073656c660000000000000000000000000000000000000000000000602082015250565b5f613ed3602983612b5d565b9150613ede82613e79565b604082019050919050565b5f6020820190508181035f830152613f0081613ec7565b9050919050565b7f455243313135353a206275726e20616d6f756e74206578636565647320746f745f8201527f616c537570706c79000000000000000000000000000000000000000000000000602082015250565b5f613f61602883612b5d565b9150613f6c82613f07565b604082019050919050565b5f6020820190508181035f830152613f8e81613f55565b9050919050565b5f81519050919050565b5f82825260208201905092915050565b5f613fb982613f95565b613fc38185613f9f565b9350613fd3818560208601612b6d565b613fdc81612b95565b840191505092915050565b5f60a082019050613ffa5f830188613169565b6140076020830187613169565b818103604083015261401981866130ed565b9050818103606083015261402d81856130ed565b905081810360808301526140418184613faf565b90509695505050505050565b5f8151905061405b81612aa0565b92915050565b5f602082840312156140765761407561297a565b5b5f6140838482850161404d565b91505092915050565b5f8160e01c9050919050565b5f60033d11156140b45760045f803e6140b15f5161408c565b90505b90565b5f60443d10614143576140c8612971565b60043d036004823e80513d602482011167ffffffffffffffff821117156140f0575050614143565b808201805167ffffffffffffffff81111561410e5750505050614143565b80602083010160043d03850181111561412b575050505050614143565b61413a82602001850186612cd2565b82955050505050505b90565b7f455243313135353a207472616e7366657220746f206e6f6e2d455243313135355f8201527f526563656976657220696d706c656d656e746572000000000000000000000000602082015250565b5f6141a0603483612b5d565b91506141ab82614146565b604082019050919050565b5f6020820190508181035f8301526141cd81614194565b9050919050565b7f455243313135353a204552433131353552656365697665722072656a656374655f8201527f6420746f6b656e73000000000000000000000000000000000000000000000000602082015250565b5f61422e602883612b5d565b9150614239826141d4565b604082019050919050565b5f6020820190508181035f83015261425b81614222565b9050919050565b5f60a0820190506142755f830188613169565b6142826020830187613169565b61428f6040830186612a4d565b61429c6060830185612a4d565b81810360808301526142ae8184613faf565b9050969550505050505056fea26469706673582212206de39d7f93c503b0284ba04ef576c7f0b44a1142f27dc135bcd341b0d9591a1964736f6c6343000814003368747470733a2f2f6d61726f6f6e2d6d7973746572696f75732d68616c696275742d3234342e6d7970696e6174612e636c6f75642f697066732f516d6250596e4b5743676247507964536367736e52574364417250736d657750783539786e643659694b323871342f72696465724e66742e6a736f6e",
  "immutableReferences": {},
  "source": "// SPDX-License-Identifier: GPL-3.0\r\n\r\npragma solidity ^0.8.18;\r\n\r\nimport \"../node_modules/@openzeppelin/contracts/token/ERC1155/ERC1155.sol\";\r\nimport \"../node_modules/@openzeppelin/contracts/token/ERC1155/extensions/ERC1155Supply.sol\";\r\nimport \"../node_modules/@openzeppelin/contracts/access/Ownable.sol\";\r\nimport \"../node_modules/@openzeppelin/contracts/utils/Counters.sol\";\r\n\r\n\r\ncontract RiderNFT is ERC1155Supply,Ownable {\r\n    \r\n    uint public cost = 1 ;                         // \r\n    uint public maxSupply = 10000;                      //nft \r\n    uint public nftPerAddressLimit = 1;                 // nft \r\n    mapping(address => uint) public _balances;          //   \r\n    mapping(uint => uint) private _mintCounts;          // \r\n    using Counters for Counters.Counter;                // \r\n    Counters.Counter private _tokenIds; \r\n    uint ownerMintedCount;                              //  \r\n    uint[] public DeliveryNft;                          //    \r\n    \r\n    \r\n    mapping(uint => uint) private _burnTimestamps;   //   _burnTimestamps    . \r\n    uint private _burnDelay = 60 days;               //   \r\n    \r\n    mapping(address => uint) public addressMintedBalance; //   .\r\n  \r\n    address ownerWallet;\r\n    constructor() ERC1155 (\"https://maroon-mysterious-halibut-244.mypinata.cloud/ipfs/QmbPYnKWCgbGPydScgsnRWCdArPsmewPx59xnd6YiK28q4/riderNft.json\") {\r\n        ownerWallet=msg.sender;\r\n    }\r\n      \r\n\r\n\r\n    //    require(order Contract )\r\n\r\n    //nft market     \r\n    function DeliveryMint(uint amount) public payable {\r\n          ownerMintedCount = addressMintedBalance[msg.sender];                  //  \r\n          require(DeliveryNft.length < 10000, \"The number of members is full\"); //  \r\n          require(ownerMintedCount < nftPerAddressLimit, \"max NFT per address exceeded\"); // \r\n          uint tokenId = _tokenIds.current()+1;                                 //  \r\n          require(msg.value >= (cost * amount), \"insufficient funds\");            // \r\n          require(DeliveryNft.length + amount < maxSupply, \"max NFT limit exceeded\");      // \r\n          _tokenIds.increment();                                                //     \r\n          _mint(msg.sender, tokenId, amount, \"\");\r\n          _burnTimestamps[tokenId] = block.timestamp + _burnDelay;              //   \r\n          _balances[msg.sender] = tokenId;\r\n           DeliveryNft.push(tokenId);\r\n         for (uint i = 1; i <= amount; i++) {                                   //    addressMintedBalance      1    .\r\n         addressMintedBalance[msg.sender]++;\r\n         \r\n         }\r\n          \r\n    }\r\n   \r\n    //    \r\n    function burn(address _a,uint tokenId) external {\r\n        require(_balances[_a] == tokenId, \"You are not the Owner\");                     //  \r\n        require(_burnTimestamps[tokenId] != 0, \"Token does not exist or already burned\");       //   \r\n        require(block.timestamp >= _burnTimestamps[tokenId], \"Burn delay has not passed yet\");  //  \r\n        _burn(msg.sender, tokenId, balanceOf(_a, tokenId));\r\n        _burnTimestamps[tokenId] = 0;\r\n         //    addressMintedBalance      1    .\r\n        addressMintedBalance[_a]--;\r\n        DeliveryNft.pop();\r\n    }\r\n\r\n    //       \r\n    function getRiderNftTime(address _a)external  view returns(uint){\r\n        return _burnTimestamps[_balances[_a]];\r\n    }\r\n    function getRiderTokenId(address _a) external view returns (uint) {\r\n        return _balances[_a];\r\n    }\r\n    \r\n   \r\n  \r\n     //-----------------------------------------------------------------------------------------------------------------//\r\n     \r\n        function setBurnDelay(uint tokenId) external onlyOwner {\r\n        _burnTimestamps[tokenId] = block.timestamp - 70 days;\r\n    }\r\n        function getMintCount(uint tokenId) external view returns (uint) {\r\n        return _mintCounts[tokenId];\r\n    }\r\n        function getBurnTimestamp(uint tokenId) external view returns (uint) {\r\n        return _burnTimestamps[tokenId];\r\n    }\r\n        function balanceOf(address account) external view returns (uint) {\r\n        return _balances[account];\r\n    }\r\n        function setBalance(address account, uint balance) external {\r\n        _balances[account] = balance;\r\n    }\r\n        // contract _to _amount \r\n        function transferTo(address payable _to, uint _amount) public {\r\n        \r\n        _to.transfer(_amount);\r\n    }\r\n\r\n    function balan(address) public view returns(uint) {\r\n       return  _balances[msg.sender];\r\n    }\r\n\r\n    function getLength() public view returns(uint) {\r\n        return DeliveryNft.length; //.\r\n    }\r\n    function getArray() public view returns(uint[] memory) {\r\n        return DeliveryNft;\r\n    }\r\n\r\n    function withdrawal( uint _amount) public {\r\n        require(ownerWallet==msg.sender,\"you are not owner\");\r\n        payable (ownerWallet).transfer(_amount);\r\n    }\r\n\r\n\r\n}\r\n     //-----------------------------------------------------------------------------------------------------------------//\r\n\r\n/*  nft  \r\n      nft        nft   nft   storeMint  if  nft,\r\n     nft  .\r\n*/",
  "sourcePath": "C:\\Users\\ASUS\\visualstudio_project\\BaeBlock_teamProject\\contract\\truffle\\contracts\\riderNft.sol",
  "compiler": {
    "name": "solc",
    "version": "0.8.20+commit.a1b79de6.Emscripten.clang"
  },
  "schemaVersion": "3.4.14",
  "updatedAt": "2023-07-17T02:44:04.527Z",
  "devdoc": {
    "events": {
      "ApprovalForAll(address,address,bool)": {
        "details": "Emitted when `account` grants or revokes permission to `operator` to transfer their tokens, according to `approved`."
      },
      "TransferBatch(address,address,address,uint256[],uint256[])": {
        "details": "Equivalent to multiple {TransferSingle} events, where `operator`, `from` and `to` are the same for all transfers."
      },
      "TransferSingle(address,address,address,uint256,uint256)": {
        "details": "Emitted when `value` tokens of token type `id` are transferred from `from` to `to` by `operator`."
      },
      "URI(string,uint256)": {
        "details": "Emitted when the URI for token type `id` changes to `value`, if it is a non-programmatic URI. If an {URI} event was emitted for `id`, the standard https://eips.ethereum.org/EIPS/eip-1155#metadata-extensions[guarantees] that `value` will equal the value returned by {IERC1155MetadataURI-uri}."
      }
    },
    "kind": "dev",
    "methods": {
      "balanceOf(address,uint256)": {
        "details": "See {IERC1155-balanceOf}. Requirements: - `account` cannot be the zero address."
      },
      "balanceOfBatch(address[],uint256[])": {
        "details": "See {IERC1155-balanceOfBatch}. Requirements: - `accounts` and `ids` must have the same length."
      },
      "exists(uint256)": {
        "details": "Indicates whether any token exist with a given id, or not."
      },
      "isApprovedForAll(address,address)": {
        "details": "See {IERC1155-isApprovedForAll}."
      },
      "owner()": {
        "details": "Returns the address of the current owner."
      },
      "renounceOwnership()": {
        "details": "Leaves the contract without owner. It will not be possible to call `onlyOwner` functions. Can only be called by the current owner. NOTE: Renouncing ownership will leave the contract without an owner, thereby disabling any functionality that is only available to the owner."
      },
      "safeBatchTransferFrom(address,address,uint256[],uint256[],bytes)": {
        "details": "See {IERC1155-safeBatchTransferFrom}."
      },
      "safeTransferFrom(address,address,uint256,uint256,bytes)": {
        "details": "See {IERC1155-safeTransferFrom}."
      },
      "setApprovalForAll(address,bool)": {
        "details": "See {IERC1155-setApprovalForAll}."
      },
      "supportsInterface(bytes4)": {
        "details": "See {IERC165-supportsInterface}."
      },
      "totalSupply(uint256)": {
        "details": "Total amount of tokens in with a given id."
      },
      "transferOwnership(address)": {
        "details": "Transfers ownership of the contract to a new account (`newOwner`). Can only be called by the current owner."
      },
      "uri(uint256)": {
        "details": "See {IERC1155MetadataURI-uri}. This implementation returns the same URI for *all* token types. It relies on the token type ID substitution mechanism https://eips.ethereum.org/EIPS/eip-1155#metadata[defined in the EIP]. Clients calling this function must replace the `\\{id\\}` substring with the actual token type ID."
      }
    },
    "version": 1
  },
  "userdoc": {
    "kind": "user",
    "methods": {},
    "version": 1
  }
}