{
  "contractName": "StoreNFT",
  "abi": [
    {
      "inputs": [],
      "stateMutability": "nonpayable",
      "type": "constructor"
    },
    {
      "anonymous": false,
      "inputs": [
        {
          "indexed": true,
          "internalType": "address",
          "name": "account",
          "type": "address"
        },
        {
          "indexed": true,
          "internalType": "address",
          "name": "operator",
          "type": "address"
        },
        {
          "indexed": false,
          "internalType": "bool",
          "name": "approved",
          "type": "bool"
        }
      ],
      "name": "ApprovalForAll",
      "type": "event"
    },
    {
      "anonymous": false,
      "inputs": [
        {
          "indexed": true,
          "internalType": "address",
          "name": "operator",
          "type": "address"
        },
        {
          "indexed": true,
          "internalType": "address",
          "name": "from",
          "type": "address"
        },
        {
          "indexed": true,
          "internalType": "address",
          "name": "to",
          "type": "address"
        },
        {
          "indexed": false,
          "internalType": "uint256[]",
          "name": "ids",
          "type": "uint256[]"
        },
        {
          "indexed": false,
          "internalType": "uint256[]",
          "name": "values",
          "type": "uint256[]"
        }
      ],
      "name": "TransferBatch",
      "type": "event"
    },
    {
      "anonymous": false,
      "inputs": [
        {
          "indexed": true,
          "internalType": "address",
          "name": "operator",
          "type": "address"
        },
        {
          "indexed": true,
          "internalType": "address",
          "name": "from",
          "type": "address"
        },
        {
          "indexed": true,
          "internalType": "address",
          "name": "to",
          "type": "address"
        },
        {
          "indexed": false,
          "internalType": "uint256",
          "name": "id",
          "type": "uint256"
        },
        {
          "indexed": false,
          "internalType": "uint256",
          "name": "value",
          "type": "uint256"
        }
      ],
      "name": "TransferSingle",
      "type": "event"
    },
    {
      "anonymous": false,
      "inputs": [
        {
          "indexed": false,
          "internalType": "string",
          "name": "value",
          "type": "string"
        },
        {
          "indexed": true,
          "internalType": "uint256",
          "name": "id",
          "type": "uint256"
        }
      ],
      "name": "URI",
      "type": "event"
    },
    {
      "inputs": [
        {
          "internalType": "address",
          "name": "",
          "type": "address"
        }
      ],
      "name": "_balances",
      "outputs": [
        {
          "internalType": "uint256",
          "name": "",
          "type": "uint256"
        }
      ],
      "stateMutability": "view",
      "type": "function"
    },
    {
      "inputs": [
        {
          "internalType": "address",
          "name": "",
          "type": "address"
        }
      ],
      "name": "addressMintedBalance",
      "outputs": [
        {
          "internalType": "uint256",
          "name": "",
          "type": "uint256"
        }
      ],
      "stateMutability": "view",
      "type": "function"
    },
    {
      "inputs": [
        {
          "internalType": "address",
          "name": "account",
          "type": "address"
        },
        {
          "internalType": "uint256",
          "name": "id",
          "type": "uint256"
        }
      ],
      "name": "balanceOf",
      "outputs": [
        {
          "internalType": "uint256",
          "name": "",
          "type": "uint256"
        }
      ],
      "stateMutability": "view",
      "type": "function"
    },
    {
      "inputs": [
        {
          "internalType": "address[]",
          "name": "accounts",
          "type": "address[]"
        },
        {
          "internalType": "uint256[]",
          "name": "ids",
          "type": "uint256[]"
        }
      ],
      "name": "balanceOfBatch",
      "outputs": [
        {
          "internalType": "uint256[]",
          "name": "",
          "type": "uint256[]"
        }
      ],
      "stateMutability": "view",
      "type": "function"
    },
    {
      "inputs": [],
      "name": "cost",
      "outputs": [
        {
          "internalType": "uint256",
          "name": "",
          "type": "uint256"
        }
      ],
      "stateMutability": "view",
      "type": "function"
    },
    {
      "inputs": [
        {
          "internalType": "address",
          "name": "",
          "type": "address"
        }
      ],
      "name": "firstMinting",
      "outputs": [
        {
          "internalType": "uint256",
          "name": "",
          "type": "uint256"
        }
      ],
      "stateMutability": "view",
      "type": "function"
    },
    {
      "inputs": [
        {
          "internalType": "address",
          "name": "account",
          "type": "address"
        },
        {
          "internalType": "address",
          "name": "operator",
          "type": "address"
        }
      ],
      "name": "isApprovedForAll",
      "outputs": [
        {
          "internalType": "bool",
          "name": "",
          "type": "bool"
        }
      ],
      "stateMutability": "view",
      "type": "function"
    },
    {
      "inputs": [],
      "name": "nftPerAddressLimit",
      "outputs": [
        {
          "internalType": "uint256",
          "name": "",
          "type": "uint256"
        }
      ],
      "stateMutability": "view",
      "type": "function"
    },
    {
      "inputs": [
        {
          "internalType": "address",
          "name": "from",
          "type": "address"
        },
        {
          "internalType": "address",
          "name": "to",
          "type": "address"
        },
        {
          "internalType": "uint256[]",
          "name": "ids",
          "type": "uint256[]"
        },
        {
          "internalType": "uint256[]",
          "name": "amounts",
          "type": "uint256[]"
        },
        {
          "internalType": "bytes",
          "name": "data",
          "type": "bytes"
        }
      ],
      "name": "safeBatchTransferFrom",
      "outputs": [],
      "stateMutability": "nonpayable",
      "type": "function"
    },
    {
      "inputs": [
        {
          "internalType": "address",
          "name": "from",
          "type": "address"
        },
        {
          "internalType": "address",
          "name": "to",
          "type": "address"
        },
        {
          "internalType": "uint256",
          "name": "id",
          "type": "uint256"
        },
        {
          "internalType": "uint256",
          "name": "amount",
          "type": "uint256"
        },
        {
          "internalType": "bytes",
          "name": "data",
          "type": "bytes"
        }
      ],
      "name": "safeTransferFrom",
      "outputs": [],
      "stateMutability": "nonpayable",
      "type": "function"
    },
    {
      "inputs": [
        {
          "internalType": "address",
          "name": "operator",
          "type": "address"
        },
        {
          "internalType": "bool",
          "name": "approved",
          "type": "bool"
        }
      ],
      "name": "setApprovalForAll",
      "outputs": [],
      "stateMutability": "nonpayable",
      "type": "function"
    },
    {
      "inputs": [
        {
          "internalType": "bytes4",
          "name": "interfaceId",
          "type": "bytes4"
        }
      ],
      "name": "supportsInterface",
      "outputs": [
        {
          "internalType": "bool",
          "name": "",
          "type": "bool"
        }
      ],
      "stateMutability": "view",
      "type": "function"
    },
    {
      "inputs": [
        {
          "internalType": "uint256",
          "name": "",
          "type": "uint256"
        }
      ],
      "name": "uri",
      "outputs": [
        {
          "internalType": "string",
          "name": "",
          "type": "string"
        }
      ],
      "stateMutability": "view",
      "type": "function"
    },
    {
      "inputs": [],
      "name": "storeMint",
      "outputs": [
        {
          "internalType": "string",
          "name": "",
          "type": "string"
        }
      ],
      "stateMutability": "payable",
      "type": "function"
    },
    {
      "inputs": [
        {
          "internalType": "address",
          "name": "_a",
          "type": "address"
        }
      ],
      "name": "getMappingAccount",
      "outputs": [
        {
          "internalType": "uint256",
          "name": "",
          "type": "uint256"
        }
      ],
      "stateMutability": "view",
      "type": "function"
    },
    {
      "inputs": [
        {
          "internalType": "address",
          "name": "_a",
          "type": "address"
        }
      ],
      "name": "getStoreNftTime",
      "outputs": [
        {
          "internalType": "uint256",
          "name": "",
          "type": "uint256"
        }
      ],
      "stateMutability": "view",
      "type": "function"
    },
    {
      "inputs": [
        {
          "internalType": "address",
          "name": "_msgSender",
          "type": "address"
        },
        {
          "internalType": "uint256",
          "name": "tokenId",
          "type": "uint256"
        }
      ],
      "name": "storeBurn",
      "outputs": [],
      "stateMutability": "nonpayable",
      "type": "function"
    },
    {
      "inputs": [
        {
          "internalType": "address",
          "name": "_a",
          "type": "address"
        }
      ],
      "name": "getStoreTokenId",
      "outputs": [
        {
          "internalType": "uint256",
          "name": "",
          "type": "uint256"
        }
      ],
      "stateMutability": "view",
      "type": "function"
    },
    {
      "inputs": [
        {
          "internalType": "uint256",
          "name": "_amount",
          "type": "uint256"
        }
      ],
      "name": "withdrawal",
      "outputs": [],
      "stateMutability": "nonpayable",
      "type": "function"
    }
  ],
  "bytecode": "0x60806040526001600355660aa87bee5380006005555f60065562278d00600b553480156200002b575f80fd5b506040518060a001604052806076815260200162003b686076913962000057816200009e60201b60201c565b5033600e5f6101000a81548173ffffffffffffffffffffffffffffffffffffffff021916908373ffffffffffffffffffffffffffffffffffffffff160217905550620003fb565b8060029081620000af919062000317565b5050565b5f81519050919050565b7f4e487b71000000000000000000000000000000000000000000000000000000005f52604160045260245ffd5b7f4e487b71000000000000000000000000000000000000000000000000000000005f52602260045260245ffd5b5f60028204905060018216806200012f57607f821691505b602082108103620001455762000144620000ea565b5b50919050565b5f819050815f5260205f209050919050565b5f6020601f8301049050919050565b5f82821b905092915050565b5f60088302620001a97fffffffffffffffffffffffffffffffffffffffffffffffffffffffffffffffff826200016c565b620001b586836200016c565b95508019841693508086168417925050509392505050565b5f819050919050565b5f819050919050565b5f620001ff620001f9620001f384620001cd565b620001d6565b620001cd565b9050919050565b5f819050919050565b6200021a83620001df565b62000232620002298262000206565b84845462000178565b825550505050565b5f90565b620002486200023a565b620002558184846200020f565b505050565b5b818110156200027c57620002705f826200023e565b6001810190506200025b565b5050565b601f821115620002cb5762000295816200014b565b620002a0846200015d565b81016020851015620002b0578190505b620002c8620002bf856200015d565b8301826200025a565b50505b505050565b5f82821c905092915050565b5f620002ed5f1984600802620002d0565b1980831691505092915050565b5f620003078383620002dc565b9150826002028217905092915050565b6200032282620000b3565b67ffffffffffffffff8111156200033e576200033d620000bd565b5b6200034a825462000117565b6200035782828562000280565b5f60209050601f8311600181146200038d575f841562000378578287015190505b620003848582620002fa565b865550620003f3565b601f1984166200039d866200014b565b5f5b82811015620003c6578489015182556001820191506020850194506020810190506200039f565b86831015620003e65784890151620003e2601f891682620002dc565b8355505b6001600288020188555050505b505050505050565b61375f80620004095f395ff3fe608060405260043610610112575f3560e01c80634e1273f41161009f578063a22cb46511610063578063a22cb465146103f2578063ba7d2c761461041a578063dbe372cd14610444578063e985e9c514610480578063f242432a146104bc57610112565b80634e1273f4146102da57806369535c16146103165780636ebcf60714610352578063817110b71461038e578063835fc6ca146103ca57610112565b806318cae269116100e657806318cae269146101f45780631ad9d603146102305780632eb2c2d6146102585780633169b6881461028057806343a77e2f146102bc57610112565b8062fdd58e1461011657806301ffc9a7146101525780630e89341c1461018e57806313faede6146101ca575b5f80fd5b348015610121575f80fd5b5061013c600480360381019061013791906121c4565b6104e4565b6040516101499190612211565b60405180910390f35b34801561015d575f80fd5b506101786004803603810190610173919061227f565b6105a7565b60405161018591906122c4565b60405180910390f35b348015610199575f80fd5b506101b460048036038101906101af91906122dd565b610688565b6040516101c19190612392565b60405180910390f35b3480156101d5575f80fd5b506101de61071a565b6040516101eb9190612211565b60405180910390f35b3480156101ff575f80fd5b5061021a600480360381019061021591906123b2565b610720565b6040516102279190612211565b60405180910390f35b34801561023b575f80fd5b50610256600480360381019061025191906121c4565b610735565b005b348015610263575f80fd5b5061027e600480360381019061027991906125cd565b6108db565b005b34801561028b575f80fd5b506102a660048036038101906102a191906123b2565b61097c565b6040516102b39190612211565b60405180910390f35b6102c46109d3565b6040516102d19190612392565b60405180910390f35b3480156102e5575f80fd5b5061030060048036038101906102fb9190612758565b610d4b565b60405161030d9190612885565b60405180910390f35b348015610321575f80fd5b5061033c600480360381019061033791906123b2565b610e62565b6040516103499190612211565b60405180910390f35b34801561035d575f80fd5b50610378600480360381019061037391906123b2565b610eb9565b6040516103859190612211565b60405180910390f35b348015610399575f80fd5b506103b460048036038101906103af91906123b2565b610ece565b6040516103c19190612211565b60405180910390f35b3480156103d5575f80fd5b506103f060048036038101906103eb91906122dd565b610ee3565b005b3480156103fd575f80fd5b50610418600480360381019061041391906128cf565b610fda565b005b348015610425575f80fd5b5061042e610ff0565b60405161043b9190612211565b60405180910390f35b34801561044f575f80fd5b5061046a600480360381019061046591906123b2565b610ff6565b6040516104779190612211565b60405180910390f35b34801561048b575f80fd5b506104a660048036038101906104a1919061290d565b61103c565b6040516104b391906122c4565b60405180910390f35b3480156104c7575f80fd5b506104e260048036038101906104dd919061294b565b6110ca565b005b5f8073ffffffffffffffffffffffffffffffffffffffff168373ffffffffffffffffffffffffffffffffffffffff1603610553576040517f08c379a000000000000000000000000000000000000000000000000000000000815260040161054a90612a4e565b60405180910390fd5b5f808381526020019081526020015f205f8473ffffffffffffffffffffffffffffffffffffffff1673ffffffffffffffffffffffffffffffffffffffff1681526020019081526020015f2054905092915050565b5f7fd9b67a26000000000000000000000000000000000000000000000000000000007bffffffffffffffffffffffffffffffffffffffffffffffffffffffff1916827bffffffffffffffffffffffffffffffffffffffffffffffffffffffff1916148061067157507f0e89341c000000000000000000000000000000000000000000000000000000007bffffffffffffffffffffffffffffffffffffffffffffffffffffffff1916827bffffffffffffffffffffffffffffffffffffffffffffffffffffffff1916145b8061068157506106808261116b565b5b9050919050565b60606002805461069790612a99565b80601f01602080910402602001604051908101604052809291908181526020018280546106c390612a99565b801561070e5780601f106106e55761010080835404028352916020019161070e565b820191905f5260205f20905b8154815290600101906020018083116106f157829003601f168201915b50505050509050919050565b60055481565b600c602052805f5260405f205f915090505481565b8060075f8473ffffffffffffffffffffffffffffffffffffffff1673ffffffffffffffffffffffffffffffffffffffff1681526020019081526020015f2054146107b4576040517f08c379a00000000000000000000000000000000000000000000000000000000081526004016107ab90612b13565b60405180910390fd5b5f600a5f8381526020019081526020015f205403610807576040517f08c379a00000000000000000000000000000000000000000000000000000000081526004016107fe90612ba1565b60405180910390fd5b600a5f8281526020019081526020015f205442101561085b576040517f08c379a000000000000000000000000000000000000000000000000000000000815260040161085290612c09565b60405180910390fd5b61086f828261086a85856104e4565b6111d4565b5f600a5f8381526020019081526020015f2081905550600c5f8373ffffffffffffffffffffffffffffffffffffffff1673ffffffffffffffffffffffffffffffffffffffff1681526020019081526020015f205f8154809291906108d290612c54565b91905055505050565b6108e3611408565b73ffffffffffffffffffffffffffffffffffffffff168573ffffffffffffffffffffffffffffffffffffffff161480610929575061092885610923611408565b61103c565b5b610968576040517f08c379a000000000000000000000000000000000000000000000000000000000815260040161095f90612ceb565b60405180910390fd5b610975858585858561140f565b5050505050565b5f600a5f60075f8573ffffffffffffffffffffffffffffffffffffffff1673ffffffffffffffffffffffffffffffffffffffff1681526020019081526020015f205481526020019081526020015f20549050919050565b6060600c5f3373ffffffffffffffffffffffffffffffffffffffff1673ffffffffffffffffffffffffffffffffffffffff1681526020019081526020015f205460048190555060035460045410610a5f576040517f08c379a0000000000000000000000000000000000000000000000000000000008152600401610a5690612d53565b60405180910390fd5b600d5f3373ffffffffffffffffffffffffffffffffffffffff1673ffffffffffffffffffffffffffffffffffffffff1681526020019081526020015f20546006819055505f6001610ab0600961171d565b610aba9190612d71565b905060016006541015610c3357610ad16009611729565b610aec3382600160405180602001604052805f81525061173d565b600b5442610afa9190612d71565b600a5f8381526020019081526020015f20819055508060075f3373ffffffffffffffffffffffffffffffffffffffff1673ffffffffffffffffffffffffffffffffffffffff1681526020019081526020015f2081905550600c5f3373ffffffffffffffffffffffffffffffffffffffff1673ffffffffffffffffffffffffffffffffffffffff1681526020019081526020015f205f815480929190610b9e90612da4565b9190505550600d5f3373ffffffffffffffffffffffffffffffffffffffff1673ffffffffffffffffffffffffffffffffffffffff1681526020019081526020015f205f815480929190610bf090612da4565b91905055506040518060400160405280600981526020017f66697273744d696e740000000000000000000000000000000000000000000000815250915050610d48565b6001600554610c429190612deb565b341015610c84576040517f08c379a0000000000000000000000000000000000000000000000000000000008152600401610c7b90612e76565b60405180910390fd5b610c8e6009611729565b610ca93382600160405180602001604052805f81525061173d565b600b5442610cb79190612d71565b600a5f8381526020019081526020015f20819055508060075f3373ffffffffffffffffffffffffffffffffffffffff1673ffffffffffffffffffffffffffffffffffffffff1681526020019081526020015f20819055506040518060400160405280600a81526020017f7365636f6e644d696e74000000000000000000000000000000000000000000008152509150505b90565b60608151835114610d91576040517f08c379a0000000000000000000000000000000000000000000000000000000008152600401610d8890612f04565b60405180910390fd5b5f835167ffffffffffffffff811115610dad57610dac6123e1565b5b604051908082528060200260200182016040528015610ddb5781602001602082028036833780820191505090505b5090505f5b8451811015610e5757610e27858281518110610dff57610dfe612f22565b5b6020026020010151858381518110610e1a57610e19612f22565b5b60200260200101516104e4565b828281518110610e3a57610e39612f22565b5b60200260200101818152505080610e5090612da4565b9050610de0565b508091505092915050565b5f600a5f60075f8573ffffffffffffffffffffffffffffffffffffffff1673ffffffffffffffffffffffffffffffffffffffff1681526020019081526020015f205481526020019081526020015f20549050919050565b6007602052805f5260405f205f915090505481565b600d602052805f5260405f205f915090505481565b3373ffffffffffffffffffffffffffffffffffffffff16600e5f9054906101000a900473ffffffffffffffffffffffffffffffffffffffff1673ffffffffffffffffffffffffffffffffffffffff1614610f72576040517f08c379a0000000000000000000000000000000000000000000000000000000008152600401610f6990612f99565b60405180910390fd5b600e5f9054906101000a900473ffffffffffffffffffffffffffffffffffffffff1673ffffffffffffffffffffffffffffffffffffffff166108fc8290811502906040515f60405180830381858888f19350505050158015610fd6573d5f803e3d5ffd5b5050565b610fec610fe5611408565b83836118e0565b5050565b60035481565b5f60075f8373ffffffffffffffffffffffffffffffffffffffff1673ffffffffffffffffffffffffffffffffffffffff1681526020019081526020015f20549050919050565b5f60015f8473ffffffffffffffffffffffffffffffffffffffff1673ffffffffffffffffffffffffffffffffffffffff1681526020019081526020015f205f8373ffffffffffffffffffffffffffffffffffffffff1673ffffffffffffffffffffffffffffffffffffffff1681526020019081526020015f205f9054906101000a900460ff16905092915050565b6110d2611408565b73ffffffffffffffffffffffffffffffffffffffff168573ffffffffffffffffffffffffffffffffffffffff161480611118575061111785611112611408565b61103c565b5b611157576040517f08c379a000000000000000000000000000000000000000000000000000000000815260040161114e90612ceb565b60405180910390fd5b6111648585858585611a47565b5050505050565b5f7f01ffc9a7000000000000000000000000000000000000000000000000000000007bffffffffffffffffffffffffffffffffffffffffffffffffffffffff1916827bffffffffffffffffffffffffffffffffffffffffffffffffffffffff1916149050919050565b5f73ffffffffffffffffffffffffffffffffffffffff168373ffffffffffffffffffffffffffffffffffffffff1603611242576040517f08c379a000000000000000000000000000000000000000000000000000000000815260040161123990613027565b60405180910390fd5b5f61124b611408565b90505f61125784611cd0565b90505f61126384611cd0565b905061128183875f858560405180602001604052805f815250611d48565b5f805f8781526020019081526020015f205f8873ffffffffffffffffffffffffffffffffffffffff1673ffffffffffffffffffffffffffffffffffffffff1681526020019081526020015f2054905084811015611313576040517f08c379a000000000000000000000000000000000000000000000000000000000815260040161130a906130b5565b60405180910390fd5b8481035f808881526020019081526020015f205f8973ffffffffffffffffffffffffffffffffffffffff1673ffffffffffffffffffffffffffffffffffffffff1681526020019081526020015f20819055505f73ffffffffffffffffffffffffffffffffffffffff168773ffffffffffffffffffffffffffffffffffffffff168573ffffffffffffffffffffffffffffffffffffffff167fc3d58168c5ae7397731d063d5bbf3d657854427343f4c083240f7aacaa2d0f6289896040516113db9291906130d3565b60405180910390a46113ff84885f868660405180602001604052805f815250611d50565b50505050505050565b5f33905090565b8151835114611453576040517f08c379a000000000000000000000000000000000000000000000000000000000815260040161144a9061316a565b60405180910390fd5b5f73ffffffffffffffffffffffffffffffffffffffff168473ffffffffffffffffffffffffffffffffffffffff16036114c1576040517f08c379a00000000000000000000000000000000000000000000000000000000081526004016114b8906131f8565b60405180910390fd5b5f6114ca611408565b90506114da818787878787611d48565b5f5b845181101561167a575f8582815181106114f9576114f8612f22565b5b602002602001015190505f85838151811061151757611516612f22565b5b602002602001015190505f805f8481526020019081526020015f205f8b73ffffffffffffffffffffffffffffffffffffffff1673ffffffffffffffffffffffffffffffffffffffff1681526020019081526020015f20549050818110156115b3576040517f08c379a00000000000000000000000000000000000000000000000000000000081526004016115aa90613286565b60405180910390fd5b8181035f808581526020019081526020015f205f8c73ffffffffffffffffffffffffffffffffffffffff1673ffffffffffffffffffffffffffffffffffffffff1681526020019081526020015f2081905550815f808581526020019081526020015f205f8b73ffffffffffffffffffffffffffffffffffffffff1673ffffffffffffffffffffffffffffffffffffffff1681526020019081526020015f205f82825461165f9190612d71565b925050819055505050508061167390612da4565b90506114dc565b508473ffffffffffffffffffffffffffffffffffffffff168673ffffffffffffffffffffffffffffffffffffffff168273ffffffffffffffffffffffffffffffffffffffff167f4a39dc06d4c0dbc64b70af90fd698a233a518aa5d07e595d983b8c0526c8f7fb87876040516116f19291906132a4565b60405180910390a4611707818787878787611d50565b611715818787878787611d58565b505050505050565b5f815f01549050919050565b6001815f015f828254019250508190555050565b5f73ffffffffffffffffffffffffffffffffffffffff168473ffffffffffffffffffffffffffffffffffffffff16036117ab576040517f08c379a00000000000000000000000000000000000000000000000000000000081526004016117a290613349565b60405180910390fd5b5f6117b4611408565b90505f6117c085611cd0565b90505f6117cc85611cd0565b90506117dc835f89858589611d48565b845f808881526020019081526020015f205f8973ffffffffffffffffffffffffffffffffffffffff1673ffffffffffffffffffffffffffffffffffffffff1681526020019081526020015f205f8282546118369190612d71565b925050819055508673ffffffffffffffffffffffffffffffffffffffff165f73ffffffffffffffffffffffffffffffffffffffff168473ffffffffffffffffffffffffffffffffffffffff167fc3d58168c5ae7397731d063d5bbf3d657854427343f4c083240f7aacaa2d0f6289896040516118b39291906130d3565b60405180910390a46118c9835f89858589611d50565b6118d7835f89898989611f2e565b50505050505050565b8173ffffffffffffffffffffffffffffffffffffffff168373ffffffffffffffffffffffffffffffffffffffff160361194e576040517f08c379a0000000000000000000000000000000000000000000000000000000008152600401611945906133d7565b60405180910390fd5b8060015f8573ffffffffffffffffffffffffffffffffffffffff1673ffffffffffffffffffffffffffffffffffffffff1681526020019081526020015f205f8473ffffffffffffffffffffffffffffffffffffffff1673ffffffffffffffffffffffffffffffffffffffff1681526020019081526020015f205f6101000a81548160ff0219169083151502179055508173ffffffffffffffffffffffffffffffffffffffff168373ffffffffffffffffffffffffffffffffffffffff167f17307eab39ab6107e8899845ad3d59bd9653f200f220920489ca2b5937696c3183604051611a3a91906122c4565b60405180910390a3505050565b5f73ffffffffffffffffffffffffffffffffffffffff168473ffffffffffffffffffffffffffffffffffffffff1603611ab5576040517f08c379a0000000000000000000000000000000000000000000000000000000008152600401611aac906131f8565b60405180910390fd5b5f611abe611408565b90505f611aca85611cd0565b90505f611ad685611cd0565b9050611ae6838989858589611d48565b5f805f8881526020019081526020015f205f8a73ffffffffffffffffffffffffffffffffffffffff1673ffffffffffffffffffffffffffffffffffffffff1681526020019081526020015f2054905085811015611b78576040517f08c379a0000000000000000000000000000000000000000000000000000000008152600401611b6f90613286565b60405180910390fd5b8581035f808981526020019081526020015f205f8b73ffffffffffffffffffffffffffffffffffffffff1673ffffffffffffffffffffffffffffffffffffffff1681526020019081526020015f2081905550855f808981526020019081526020015f205f8a73ffffffffffffffffffffffffffffffffffffffff1673ffffffffffffffffffffffffffffffffffffffff1681526020019081526020015f205f828254611c249190612d71565b925050819055508773ffffffffffffffffffffffffffffffffffffffff168973ffffffffffffffffffffffffffffffffffffffff168573ffffffffffffffffffffffffffffffffffffffff167fc3d58168c5ae7397731d063d5bbf3d657854427343f4c083240f7aacaa2d0f628a8a604051611ca19291906130d3565b60405180910390a4611cb7848a8a86868a611d50565b611cc5848a8a8a8a8a611f2e565b505050505050505050565b60605f600167ffffffffffffffff811115611cee57611ced6123e1565b5b604051908082528060200260200182016040528015611d1c5781602001602082028036833780820191505090505b50905082815f81518110611d3357611d32612f22565b5b60200260200101818152505080915050919050565b505050505050565b505050505050565b611d778473ffffffffffffffffffffffffffffffffffffffff16612104565b15611f26578373ffffffffffffffffffffffffffffffffffffffff1663bc197c8187878686866040518663ffffffff1660e01b8152600401611dbd959493929190613456565b6020604051808303815f875af1925050508015611df857506040513d601f19601f82011682018060405250810190611df591906134d0565b60015b611e9d57611e04613507565b806308c379a003611e605750611e18613526565b80611e235750611e62565b806040517f08c379a0000000000000000000000000000000000000000000000000000000008152600401611e579190612392565b60405180910390fd5b505b6040517f08c379a0000000000000000000000000000000000000000000000000000000008152600401611e9490613625565b60405180910390fd5b63bc197c8160e01b7bffffffffffffffffffffffffffffffffffffffffffffffffffffffff1916817bffffffffffffffffffffffffffffffffffffffffffffffffffffffff191614611f24576040517f08c379a0000000000000000000000000000000000000000000000000000000008152600401611f1b906136b3565b60405180910390fd5b505b505050505050565b611f4d8473ffffffffffffffffffffffffffffffffffffffff16612104565b156120fc578373ffffffffffffffffffffffffffffffffffffffff1663f23a6e6187878686866040518663ffffffff1660e01b8152600401611f939594939291906136d1565b6020604051808303815f875af1925050508015611fce57506040513d601f19601f82011682018060405250810190611fcb91906134d0565b60015b61207357611fda613507565b806308c379a0036120365750611fee613526565b80611ff95750612038565b806040517f08c379a000000000000000000000000000000000000000000000000000000000815260040161202d9190612392565b60405180910390fd5b505b6040517f08c379a000000000000000000000000000000000000000000000000000000000815260040161206a90613625565b60405180910390fd5b63f23a6e6160e01b7bffffffffffffffffffffffffffffffffffffffffffffffffffffffff1916817bffffffffffffffffffffffffffffffffffffffffffffffffffffffff1916146120fa576040517f08c379a00000000000000000000000000000000000000000000000000000000081526004016120f1906136b3565b60405180910390fd5b505b505050505050565b5f808273ffffffffffffffffffffffffffffffffffffffff163b119050919050565b5f604051905090565b5f80fd5b5f80fd5b5f73ffffffffffffffffffffffffffffffffffffffff82169050919050565b5f61216082612137565b9050919050565b61217081612156565b811461217a575f80fd5b50565b5f8135905061218b81612167565b92915050565b5f819050919050565b6121a381612191565b81146121ad575f80fd5b50565b5f813590506121be8161219a565b92915050565b5f80604083850312156121da576121d961212f565b5b5f6121e78582860161217d565b92505060206121f8858286016121b0565b9150509250929050565b61220b81612191565b82525050565b5f6020820190506122245f830184612202565b92915050565b5f7fffffffff0000000000000000000000000000000000000000000000000000000082169050919050565b61225e8161222a565b8114612268575f80fd5b50565b5f8135905061227981612255565b92915050565b5f602082840312156122945761229361212f565b5b5f6122a18482850161226b565b91505092915050565b5f8115159050919050565b6122be816122aa565b82525050565b5f6020820190506122d75f8301846122b5565b92915050565b5f602082840312156122f2576122f161212f565b5b5f6122ff848285016121b0565b91505092915050565b5f81519050919050565b5f82825260208201905092915050565b5f5b8381101561233f578082015181840152602081019050612324565b5f8484015250505050565b5f601f19601f8301169050919050565b5f61236482612308565b61236e8185612312565b935061237e818560208601612322565b6123878161234a565b840191505092915050565b5f6020820190508181035f8301526123aa818461235a565b905092915050565b5f602082840312156123c7576123c661212f565b5b5f6123d48482850161217d565b91505092915050565b5f80fd5b7f4e487b71000000000000000000000000000000000000000000000000000000005f52604160045260245ffd5b6124178261234a565b810181811067ffffffffffffffff82111715612436576124356123e1565b5b80604052505050565b5f612448612126565b9050612454828261240e565b919050565b5f67ffffffffffffffff821115612473576124726123e1565b5b602082029050602081019050919050565b5f80fd5b5f61249a61249584612459565b61243f565b905080838252602082019050602084028301858111156124bd576124bc612484565b5b835b818110156124e657806124d288826121b0565b8452602084019350506020810190506124bf565b5050509392505050565b5f82601f830112612504576125036123dd565b5b8135612514848260208601612488565b91505092915050565b5f80fd5b5f67ffffffffffffffff82111561253b5761253a6123e1565b5b6125448261234a565b9050602081019050919050565b828183375f83830152505050565b5f61257161256c84612521565b61243f565b90508281526020810184848401111561258d5761258c61251d565b5b612598848285612551565b509392505050565b5f82601f8301126125b4576125b36123dd565b5b81356125c484826020860161255f565b91505092915050565b5f805f805f60a086880312156125e6576125e561212f565b5b5f6125f38882890161217d565b95505060206126048882890161217d565b945050604086013567ffffffffffffffff81111561262557612624612133565b5b612631888289016124f0565b935050606086013567ffffffffffffffff81111561265257612651612133565b5b61265e888289016124f0565b925050608086013567ffffffffffffffff81111561267f5761267e612133565b5b61268b888289016125a0565b9150509295509295909350565b5f67ffffffffffffffff8211156126b2576126b16123e1565b5b602082029050602081019050919050565b5f6126d56126d084612698565b61243f565b905080838252602082019050602084028301858111156126f8576126f7612484565b5b835b81811015612721578061270d888261217d565b8452602084019350506020810190506126fa565b5050509392505050565b5f82601f83011261273f5761273e6123dd565b5b813561274f8482602086016126c3565b91505092915050565b5f806040838503121561276e5761276d61212f565b5b5f83013567ffffffffffffffff81111561278b5761278a612133565b5b6127978582860161272b565b925050602083013567ffffffffffffffff8111156127b8576127b7612133565b5b6127c4858286016124f0565b9150509250929050565b5f81519050919050565b5f82825260208201905092915050565b5f819050602082019050919050565b61280081612191565b82525050565b5f61281183836127f7565b60208301905092915050565b5f602082019050919050565b5f612833826127ce565b61283d81856127d8565b9350612848836127e8565b805f5b8381101561287857815161285f8882612806565b975061286a8361281d565b92505060018101905061284b565b5085935050505092915050565b5f6020820190508181035f83015261289d8184612829565b905092915050565b6128ae816122aa565b81146128b8575f80fd5b50565b5f813590506128c9816128a5565b92915050565b5f80604083850312156128e5576128e461212f565b5b5f6128f28582860161217d565b9250506020612903858286016128bb565b9150509250929050565b5f80604083850312156129235761292261212f565b5b5f6129308582860161217d565b92505060206129418582860161217d565b9150509250929050565b5f805f805f60a086880312156129645761296361212f565b5b5f6129718882890161217d565b95505060206129828882890161217d565b9450506040612993888289016121b0565b93505060606129a4888289016121b0565b925050608086013567ffffffffffffffff8111156129c5576129c4612133565b5b6129d1888289016125a0565b9150509295509295909350565b7f455243313135353a2061646472657373207a65726f206973206e6f74206120765f8201527f616c6964206f776e657200000000000000000000000000000000000000000000602082015250565b5f612a38602a83612312565b9150612a43826129de565b604082019050919050565b5f6020820190508181035f830152612a6581612a2c565b9050919050565b7f4e487b71000000000000000000000000000000000000000000000000000000005f52602260045260245ffd5b5f6002820490506001821680612ab057607f821691505b602082108103612ac357612ac2612a6c565b5b50919050565b7f596f7520617265206e6f7420746865204f776e657200000000000000000000005f82015250565b5f612afd601583612312565b9150612b0882612ac9565b602082019050919050565b5f6020820190508181035f830152612b2a81612af1565b9050919050565b7f546f6b656e20646f6573206e6f74206578697374206f7220616c7265616479205f8201527f6275726e65640000000000000000000000000000000000000000000000000000602082015250565b5f612b8b602683612312565b9150612b9682612b31565b604082019050919050565b5f6020820190508181035f830152612bb881612b7f565b9050919050565b7f4275726e2064656c617920686173206e6f7420706173736564207965740000005f82015250565b5f612bf3601d83612312565b9150612bfe82612bbf565b602082019050919050565b5f6020820190508181035f830152612c2081612be7565b9050919050565b7f4e487b71000000000000000000000000000000000000000000000000000000005f52601160045260245ffd5b5f612c5e82612191565b91505f8203612c7057612c6f612c27565b5b600182039050919050565b7f455243313135353a2063616c6c6572206973206e6f7420746f6b656e206f776e5f8201527f6572206f7220617070726f766564000000000000000000000000000000000000602082015250565b5f612cd5602e83612312565b9150612ce082612c7b565b604082019050919050565b5f6020820190508181035f830152612d0281612cc9565b9050919050565b7f6d6178204e4654207065722061646472657373206578636565646564000000005f82015250565b5f612d3d601c83612312565b9150612d4882612d09565b602082019050919050565b5f6020820190508181035f830152612d6a81612d31565b9050919050565b5f612d7b82612191565b9150612d8683612191565b9250828201905080821115612d9e57612d9d612c27565b5b92915050565b5f612dae82612191565b91507fffffffffffffffffffffffffffffffffffffffffffffffffffffffffffffffff8203612de057612ddf612c27565b5b600182019050919050565b5f612df582612191565b9150612e0083612191565b9250828202612e0e81612191565b91508282048414831517612e2557612e24612c27565b5b5092915050565b7f696e73756666696369656e742066756e647300000000000000000000000000005f82015250565b5f612e60601283612312565b9150612e6b82612e2c565b602082019050919050565b5f6020820190508181035f830152612e8d81612e54565b9050919050565b7f455243313135353a206163636f756e747320616e6420696473206c656e6774685f8201527f206d69736d617463680000000000000000000000000000000000000000000000602082015250565b5f612eee602983612312565b9150612ef982612e94565b604082019050919050565b5f6020820190508181035f830152612f1b81612ee2565b9050919050565b7f4e487b71000000000000000000000000000000000000000000000000000000005f52603260045260245ffd5b7f796f7520617265206e6f74206f776e65720000000000000000000000000000005f82015250565b5f612f83601183612312565b9150612f8e82612f4f565b602082019050919050565b5f6020820190508181035f830152612fb081612f77565b9050919050565b7f455243313135353a206275726e2066726f6d20746865207a65726f20616464725f8201527f6573730000000000000000000000000000000000000000000000000000000000602082015250565b5f613011602383612312565b915061301c82612fb7565b604082019050919050565b5f6020820190508181035f83015261303e81613005565b9050919050565b7f455243313135353a206275726e20616d6f756e7420657863656564732062616c5f8201527f616e636500000000000000000000000000000000000000000000000000000000602082015250565b5f61309f602483612312565b91506130aa82613045565b604082019050919050565b5f6020820190508181035f8301526130cc81613093565b9050919050565b5f6040820190506130e65f830185612202565b6130f36020830184612202565b9392505050565b7f455243313135353a2069647320616e6420616d6f756e7473206c656e677468205f8201527f6d69736d61746368000000000000000000000000000000000000000000000000602082015250565b5f613154602883612312565b915061315f826130fa565b604082019050919050565b5f6020820190508181035f83015261318181613148565b9050919050565b7f455243313135353a207472616e7366657220746f20746865207a65726f2061645f8201527f6472657373000000000000000000000000000000000000000000000000000000602082015250565b5f6131e2602583612312565b91506131ed82613188565b604082019050919050565b5f6020820190508181035f83015261320f816131d6565b9050919050565b7f455243313135353a20696e73756666696369656e742062616c616e636520666f5f8201527f72207472616e7366657200000000000000000000000000000000000000000000602082015250565b5f613270602a83612312565b915061327b82613216565b604082019050919050565b5f6020820190508181035f83015261329d81613264565b9050919050565b5f6040820190508181035f8301526132bc8185612829565b905081810360208301526132d08184612829565b90509392505050565b7f455243313135353a206d696e7420746f20746865207a65726f206164647265735f8201527f7300000000000000000000000000000000000000000000000000000000000000602082015250565b5f613333602183612312565b915061333e826132d9565b604082019050919050565b5f6020820190508181035f83015261336081613327565b9050919050565b7f455243313135353a2073657474696e6720617070726f76616c207374617475735f8201527f20666f722073656c660000000000000000000000000000000000000000000000602082015250565b5f6133c1602983612312565b91506133cc82613367565b604082019050919050565b5f6020820190508181035f8301526133ee816133b5565b9050919050565b6133fe81612156565b82525050565b5f81519050919050565b5f82825260208201905092915050565b5f61342882613404565b613432818561340e565b9350613442818560208601612322565b61344b8161234a565b840191505092915050565b5f60a0820190506134695f8301886133f5565b61347660208301876133f5565b81810360408301526134888186612829565b9050818103606083015261349c8185612829565b905081810360808301526134b0818461341e565b90509695505050505050565b5f815190506134ca81612255565b92915050565b5f602082840312156134e5576134e461212f565b5b5f6134f2848285016134bc565b91505092915050565b5f8160e01c9050919050565b5f60033d11156135235760045f803e6135205f516134fb565b90505b90565b5f60443d106135b257613537612126565b60043d036004823e80513d602482011167ffffffffffffffff8211171561355f5750506135b2565b808201805167ffffffffffffffff81111561357d57505050506135b2565b80602083010160043d03850181111561359a5750505050506135b2565b6135a98260200185018661240e565b82955050505050505b90565b7f455243313135353a207472616e7366657220746f206e6f6e2d455243313135355f8201527f526563656976657220696d706c656d656e746572000000000000000000000000602082015250565b5f61360f603483612312565b915061361a826135b5565b604082019050919050565b5f6020820190508181035f83015261363c81613603565b9050919050565b7f455243313135353a204552433131353552656365697665722072656a656374655f8201527f6420746f6b656e73000000000000000000000000000000000000000000000000602082015250565b5f61369d602883612312565b91506136a882613643565b604082019050919050565b5f6020820190508181035f8301526136ca81613691565b9050919050565b5f60a0820190506136e45f8301886133f5565b6136f160208301876133f5565b6136fe6040830186612202565b61370b6060830185612202565b818103608083015261371d818461341e565b9050969550505050505056fea264697066735822122029c2c12b2dfcafcaed173c173df1093977fd71df81d0fd9ba6db2e394fdeee0b64736f6c6343000814003368747470733a2f2f6d61726f6f6e2d6d7973746572696f75732d68616c696275742d3234342e6d7970696e6174612e636c6f75642f697066732f516d64627a38584131767a535471646b703354706f4446673735344a4d67386e48574d4b4747724150506331664c2f73746f72654e66742e6a736f6e",
  "immutableReferences": {},
  "source": "// SPDX-License-Identifier: GPL-3.0\r\n\r\npragma solidity ^0.8.18;\r\n\r\nimport \"../node_modules/@openzeppelin/contracts/token/ERC1155/ERC1155.sol\";\r\nimport \"../node_modules/@openzeppelin/contracts/token/ERC1155/extensions/ERC1155Supply.sol\";\r\nimport \"../node_modules/@openzeppelin/contracts/access/Ownable.sol\";\r\nimport \"../node_modules/@openzeppelin/contracts/utils/Counters.sol\";\r\n\r\n\r\ncontract StoreNFT is ERC1155 {\r\n\r\n    uint public nftPerAddressLimit = 1; \r\n    uint ownerMintedCount;  \r\n    uint public cost = 3000000000000000 ; \r\n    uint firstMint = 0;\r\n    mapping(address => uint) public _balances;          \r\n    mapping(uint => uint) private _mintCounts; \r\n    using Counters for Counters.Counter;                \r\n    Counters.Counter private _tokenIds; \r\n    mapping(uint => uint) private _burnTimestamps; \r\n    uint private _burnDelay = 30 days; \r\n    mapping(address => uint) public addressMintedBalance; \r\n    mapping(address => uint) public firstMinting;\r\n    \r\n    \r\n    address ownerWallet;\r\n    constructor () ERC1155 (\"https://maroon-mysterious-halibut-244.mypinata.cloud/ipfs/Qmdbz8XA1vzSTqdkp3TpoDFg754JMg8nHWMKGGrAPPc1fL/storeNft.json\") {\r\n      ownerWallet= msg.sender;\r\n    }\r\n\r\n\r\n    //    \r\n    function storeMint() public payable returns(string memory) {\r\n      ownerMintedCount = addressMintedBalance[msg.sender];\r\n      require(ownerMintedCount < nftPerAddressLimit, \"max NFT per address exceeded\"); // \r\n      firstMint = firstMinting[msg.sender];\r\n      uint tokenId = _tokenIds.current()+1; \r\n      if(firstMint < 1) {\r\n          _tokenIds.increment();                                                //     \r\n          _mint(msg.sender, tokenId, 1, \"\");\r\n          _burnTimestamps[tokenId] = block.timestamp + _burnDelay;\r\n          _balances[msg.sender] = tokenId;\r\n          addressMintedBalance[msg.sender]++;\r\n          firstMinting[msg.sender]++;  //   \r\n          return \"firstMint\";\r\n          } else {\r\n\r\n              require(msg.value >= cost * 1, \"insufficient funds\");  \r\n              _tokenIds.increment();\r\n              _mint(msg.sender, tokenId, 1, \"\");\r\n              _burnTimestamps[tokenId] = block.timestamp + _burnDelay;\r\n              _balances[msg.sender] = tokenId;\r\n              return \"secondMint\";\r\n          }\r\n      }\r\n\r\n      function getMappingAccount(address _a) external view returns (uint){\r\n    return _burnTimestamps[_balances[_a]];\r\n}\r\n      //       \r\n      function getStoreNftTime(address _a)external view returns(uint){\r\n        return _burnTimestamps[_balances[_a]];\r\n      }\r\n\r\n      \r\n      //  burn \r\n     function storeBurn(address _msgSender,uint tokenId) external {\r\n         \r\n        require(_balances[_msgSender] == tokenId, \"You are not the Owner\");                     //  \r\n        require(_burnTimestamps[tokenId] != 0, \"Token does not exist or already burned\");       //   \r\n        require(block.timestamp >= _burnTimestamps[tokenId], \"Burn delay has not passed yet\");  //  \r\n        _burn(_msgSender, tokenId, balanceOf(_msgSender, tokenId));\r\n        _burnTimestamps[tokenId] = 0;\r\n        addressMintedBalance[_msgSender]--; \r\n     }\r\n\r\n     function getStoreTokenId(address _a) external view returns (uint) {\r\n        return _balances[_a];\r\n    }\r\n\r\n  function withdrawal( uint _amount) public {\r\n        require(ownerWallet==msg.sender,\"you are not owner\");\r\n        payable (ownerWallet).transfer(_amount);\r\n    }\r\n\r\n\r\n\r\n\r\n    }",
  "sourcePath": "C:\\Users\\ASUS\\visualstudio_project\\BaeBlock_teamProject\\contract\\truffle\\contracts\\storeNft.sol",
  "compiler": {
    "name": "solc",
    "version": "0.8.20+commit.a1b79de6.Emscripten.clang"
  },
  "schemaVersion": "3.4.14",
  "updatedAt": "2023-07-17T02:44:04.535Z",
  "devdoc": {
    "events": {
      "ApprovalForAll(address,address,bool)": {
        "details": "Emitted when `account` grants or revokes permission to `operator` to transfer their tokens, according to `approved`."
      },
      "TransferBatch(address,address,address,uint256[],uint256[])": {
        "details": "Equivalent to multiple {TransferSingle} events, where `operator`, `from` and `to` are the same for all transfers."
      },
      "TransferSingle(address,address,address,uint256,uint256)": {
        "details": "Emitted when `value` tokens of token type `id` are transferred from `from` to `to` by `operator`."
      },
      "URI(string,uint256)": {
        "details": "Emitted when the URI for token type `id` changes to `value`, if it is a non-programmatic URI. If an {URI} event was emitted for `id`, the standard https://eips.ethereum.org/EIPS/eip-1155#metadata-extensions[guarantees] that `value` will equal the value returned by {IERC1155MetadataURI-uri}."
      }
    },
    "kind": "dev",
    "methods": {
      "balanceOf(address,uint256)": {
        "details": "See {IERC1155-balanceOf}. Requirements: - `account` cannot be the zero address."
      },
      "balanceOfBatch(address[],uint256[])": {
        "details": "See {IERC1155-balanceOfBatch}. Requirements: - `accounts` and `ids` must have the same length."
      },
      "isApprovedForAll(address,address)": {
        "details": "See {IERC1155-isApprovedForAll}."
      },
      "safeBatchTransferFrom(address,address,uint256[],uint256[],bytes)": {
        "details": "See {IERC1155-safeBatchTransferFrom}."
      },
      "safeTransferFrom(address,address,uint256,uint256,bytes)": {
        "details": "See {IERC1155-safeTransferFrom}."
      },
      "setApprovalForAll(address,bool)": {
        "details": "See {IERC1155-setApprovalForAll}."
      },
      "supportsInterface(bytes4)": {
        "details": "See {IERC165-supportsInterface}."
      },
      "uri(uint256)": {
        "details": "See {IERC1155MetadataURI-uri}. This implementation returns the same URI for *all* token types. It relies on the token type ID substitution mechanism https://eips.ethereum.org/EIPS/eip-1155#metadata[defined in the EIP]. Clients calling this function must replace the `\\{id\\}` substring with the actual token type ID."
      }
    },
    "version": 1
  },
  "userdoc": {
    "kind": "user",
    "methods": {},
    "version": 1
  }
}